******************************************************************************
                  TI ARM Linker PC v18.1.3                     
******************************************************************************
>> Linked Wed Nov 21 17:32:10 2018

OUTPUT FILE NAME:   <i2ctmp006_MSP_EXP432P401R_TI.out>
ENTRY POINT SYMBOL: "_c_int00"  address: 00005689


MEMORY CONFIGURATION

         name            origin    length      used     unused   attr    fill
----------------------  --------  ---------  --------  --------  ----  --------
  MAIN                  00000000   00040000  0000a7de  00035822  R  X
  INFO                  00200000   00004000  00000000  00004000  R  X
  SRAM_CODE             01000000   00010000  00000000  00010000  RW X
  SRAM_DATA             20000000   00010000  000026b5  0000d94b  RW  


SEGMENT ALLOCATION MAP

run origin  load origin   length   init length attrs members
----------  ----------- ---------- ----------- ----- -------
00000000    00000000    0000a7e8   0000a7e8    r-x
  00000000    00000000    0000003c   0000003c    r-- .resetVecs
  00000040    00000040    00007dea   00007dea    r-x .text
  00007e30    00007e30    000026d8   000026d8    r-- .const
  0000a508    0000a508    000002e0   000002e0    r-- .cinit
20000000    20000000    00000140   00000000    rw-
  20000000    20000000    00000140   00000000    rw- .vecs
20000180    20000180    00002275   00000000    rw-
  20000180    20000180    00001bb0   00000000    rw- .bss
  20001d30    20001d30    000006c5   00000000    rw- .data
2000fd00    2000fd00    00000300   00000000    rw-
  2000fd00    2000fd00    00000300   00000000    rw- .stack


SECTION ALLOCATION MAP

 output                                  attributes/
section   page    origin      length       input sections
--------  ----  ----------  ----------   ----------------
.text      0    00000040    00007dea     
                  00000040    000009c0     rtsv7M4_T_le_v4SPD16_eabi.lib : e_pow.c.obj (.text:pow)
                  00000a00    00000430     sysbios.aem4f : BIOS.obj (.text:ti_sysbios_family_arm_m3_Hwi_excDumpRegs__I)
                  00000e30    0000034c     ti.targets.arm.rtsarm.aem4f : System.oem4f (.text:xdc_runtime_System_doPrint__I)
                  0000117c    00000320     i2ctmp006.obj (.text:leer_imu)
                  0000149c    000002ec     rtsv7M4_T_le_v4SPD16_eabi.lib : s_atan.c.obj (.text:atan)
                  00001788    00000264     drivers_MSP432P401R.aem4f : PowerMSP432.oem4f (.text:Power_sleep)
                  000019ec    000001b6     rtsv7M4_T_le_v4SPD16_eabi.lib : fd_add_t2.asm.obj (.text)
                  00001ba2    000001a0     msp432p4xx_driverlib.lib : pcm.o (.text:__PCM_setPowerStateAdvanced)
                  00001d42    00000002     power_tirtos_MSP432P401R.aem4f : PowerMSP432_tirtos.oem4f (.text:PowerMSP432_initPolicy)
                  00001d44    00000178     drivers_MSP432P401R.aem4f : I2CMSP432.oem4f (.text:I2CMSP432_open)
                  00001ebc    00000004     msp432p4xx_driverlib.lib : cpu.o (.text:CPU_wfi)
                  00001ec0    00000174     sysbios.aem4f : BIOS.obj (.text:ti_sysbios_family_arm_m3_Hwi_excBusFault__I)
                  00002034    00000004     tirtosport.aem4f : HwiP_tirtos.oem4f (.text:HwiP_disable)
                  00002038    00000164     sysbios.aem4f : BIOS.obj (.text:ti_sysbios_family_arm_m3_Hwi_excUsageFault__I)
                  0000219c    00000158     rtsv7M4_T_le_v4SPD16_eabi.lib : e_sqrt.c.obj (.text:sqrt)
                  000022f4    00000004     msp432p4xx_driverlib.lib : i2c.o (.text:I2C_setSlaveAddress)
                  000022f8    00000148     sysbios.aem4f : BIOS.obj (.text:ti_sysbios_family_arm_m3_Hwi_excMemFault__I)
                  00002440    00000140     drivers_MSP432P401R.aem4f : GPIOMSP432.oem4f (.text:GPIO_setConfig)
                  00002580    00000138     sysbios.aem4f : BIOS.obj (.text:ti_sysbios_knl_Semaphore_pend__E)
                  000026b8    00000138     i2ctmp006_pem4f.oem4f (.text:ti_uia_loggers_LoggerStopMode_writeMemoryRange__E)
                  000027f0    00000136     rtsv7M4_T_le_v4SPD16_eabi.lib : fd_div_t2.asm.obj (.text)
                  00002926    00000118     drivers_MSP432P401R.aem4f : I2CMSP432.oem4f (.text:I2CMSP432_hwiIntFxn)
                  00002a3e    00000002     rtsv7M4_T_le_v4SPD16_eabi.lib : _lock.c.obj (.text:_nop)
                  00002a40    00000118     ti.targets.arm.rtsarm.aem4f : Error.oem4f (.text:xdc_runtime_Error_policyDefault__E)
                  00002b58    00000110     rtsv7M4_T_le_v4SPD16_eabi.lib : s_scalbn.c.obj (.text:scalbn)
                  00002c68    0000010c     sysbios.aem4f : BIOS.obj (.text:ti_sysbios_family_arm_m3_Hwi_excFillContext__I)
                  00002d74    0000010c     i2ctmp006_pem4f.oem4f (.text:ti_uia_loggers_LoggerStopMode_write8__E)
                  00002e80    00000108     sysbios.aem4f : BIOS.obj (.text:ti_sysbios_family_arm_m3_Hwi_excHandlerMax__I)
                  00002f88    00000100     ti.targets.arm.rtsarm.aem4f : Core-mem.oem4f (.text:xdc_runtime_Core_createObject__I)
                  00003088    000000fc     rtsv7M4_T_le_v4SPD16_eabi.lib : fd_mul_t2.asm.obj (.text)
                  00003184    000000f8     ti.targets.arm.rtsarm.aem4f : Startup.oem4f (.text:xdc_runtime_Startup_startMods__I)
                  0000327c    000000f8     i2ctmp006_pem4f.oem4f (.text:xdc_runtime_System_printfExtend__I)
                  00003374    000000f4     i2ctmp006_pem4f.oem4f (.text:ti_uia_loggers_LoggerStopMode_write4__E)
                  00003468    000000f0     drivers_MSP432P401R.aem4f : PowerMSP432.oem4f (.text:initPerfControl)
                  00003558    000000ec     sysbios.aem4f : m3_Hwi_asm.obj (.text:ti_sysbios_family_arm_m3_Hwi_dispatch__I)
                  00003644    000000e8     i2ctmp006_pem4f.oem4f (.text:ti_uia_loggers_LoggerStopMode_write1__E)
                  0000372c    000000e8     i2ctmp006_pem4f.oem4f (.text:ti_uia_loggers_LoggerStopMode_write2__E)
                  00003814    000000e0     msp432p4xx_driverlib.lib : cs.o (.text:CS_initClockSignal)
                  000038f4    000000dc                              : pcm.o (.text:__PCM_setPowerModeAdvanced)
                  000039d0    000000d8     i2ctmp006_pem4f.oem4f (.text:ti_uia_loggers_LoggerStopMode_write0__E)
                  00003aa8    000000d4     sysbios.aem4f : BIOS.obj (.text:ti_sysbios_heaps_HeapMem_alloc__E)
                  00003b7c    00000004     drivers_MSP432P401R.aem4f : List.oem4f (.text:List_head)
                  00003b80    000000cc     sysbios.aem4f : BIOS.obj (.text:ti_sysbios_knl_Task_Instance_init__E)
                  00003c4c    000000cc     ti.targets.arm.rtsarm.aem4f : Core-smem.oem4f (.text:xdc_runtime_Core_constructObject__I)
                  00003d18    000000bc     sysbios.aem4f : BIOS.obj (.text:ti_sysbios_family_arm_m3_Hwi_excDebugMon__I)
                  00003dd4    00000004     drivers_MSP432P401R.aem4f : List.oem4f (.text:List_next)
                  00003dd8    000000bc     sysbios.aem4f : BIOS.obj (.text:ti_sysbios_family_arm_m3_Hwi_excHardFault__I)
                  00003e94    00000004     drivers_MSP432P401R.aem4f : PowerMSP432.oem4f (.text:PowerMSP432_getNumPerfLevels)
                  00003e98    000000b4     sysbios.aem4f : BIOS.obj (.text:ti_sysbios_knl_Task_Instance_finalize__E)
                  00003f4c    00000004     rtsv7M4_T_le_v4SPD16_eabi.lib : exit.c.obj (.text:abort:abort)
                  00003f50    000000b4     sysbios.aem4f : BIOS.obj (.text:ti_sysbios_knl_Task_checkStacks__E)
                  00004004    000000b0     msp432p4xx_driverlib.lib : pcm.o (.text:__PCM_setCoreVoltageLevelAdvanced)
                  000040b4    00000004     i2ctmp006_pem4f.oem4f (.text:ti_sysbios_BIOS_RtsGateProxy_enter__E)
                  000040b8    000000a8     sysbios.aem4f : BIOS.obj (.text:ti_sysbios_family_arm_msp432_Timer_periodicStub__E)
                  00004160    000000a0     auto_init.aem4f : auto_init.oem4f (.text)
                  00004200    000000a0     ti.targets.arm.rtsarm.aem4f : Text.oem4f (.text:xdc_runtime_Text_putMod__E)
                  000042a0    0000009c     rtsv7M4_T_le_v4SPD16_eabi.lib : memcpy_t2.asm.obj (.text)
                  0000433c    0000009a     ti.targets.arm.rtsarm.aem4f : Text.oem4f (.text:xdc_runtime_Text_putSite__E)
                  000043d6    00000002     rtsv7M4_T_le_v4SPD16_eabi.lib : div0.asm.obj (.text)
                  000043d8    00000094     sysbios.aem4f : BIOS.obj (.text:ti_sysbios_family_arm_m3_Hwi_Instance_init__E)
                  0000446c    00000004     i2ctmp006_pem4f.oem4f (.text:ti_sysbios_BIOS_RtsGateProxy_leave__E)
                  00004470    00000094     sysbios.aem4f : BIOS.obj (.text:ti_sysbios_family_arm_m3_Hwi_initNVIC__E)
                  00004504    00000092     drivers_MSP432P401R.aem4f : I2CMSP432.oem4f (.text:I2CMSP432_cancel)
                  00004596    00000002     i2ctmp006_pem4f.oem4f (.text:ti_sysbios_BIOS_nullFunc__I)
                  00004598    00000090     ti.uia.loggers.aem4f : LoggerStopMode.oem4f (.text:ti_uia_loggers_LoggerStopMode_initQueueDescriptor__E)
                  00004628    0000008c     drivers_MSP432P401R.aem4f : I2CMSP432.oem4f (.text:I2CMSP432_transfer)
                  000046b4    0000008c     sysbios.aem4f : m3_TaskSupport_asm.obj (.text:ti_sysbios_family_arm_m3_TaskSupport_buildTaskStack)
                  00004740    0000008c                   : BIOS.obj (.text:ti_sysbios_knl_Task_postInit__I)
                  000047cc    00000086     rtsv7M4_T_le_v4SPD16_eabi.lib : fd_cmp_t2.asm.obj (.text:__aeabi_cdcmple)
                  00004852    00000086                                   : fd_cmp_t2.asm.obj (.text:__aeabi_cdrcmple)
                  000048d8    00000084     sysbios.aem4f : BIOS.obj (.text:ti_sysbios_family_arm_m3_Hwi_postInit__I)
                  0000495c    00000004     i2ctmp006_pem4f.oem4f (.text:ti_sysbios_family_arm_m3_Hwi_destruct)
                  00004960    00000080     sysbios.aem4f : BIOS.obj (.text:ti_sysbios_utils_Load_updateLoads__E)
                  000049e0    0000007c     msp432p4xx_driverlib.lib : pcm.o (.text:PCM_gotoLPM3)
                  00004a5c    00000004     i2ctmp006_pem4f.oem4f (.text:ti_sysbios_family_arm_m3_TaskSupport_Module__startupDone__S)
                  00004a60    0000007c     sysbios.aem4f : BIOS.obj (.text:ti_sysbios_heaps_HeapMem_free__E)
                  00004adc    0000007a     rtsv7M4_T_le_v4SPD16_eabi.lib : memset_t2.asm.obj (.text)
                  00004b56    00000002     i2ctmp006_pem4f.oem4f (.text:ti_uia_loggers_LoggerStopMode_setFilterLevel__E)
                  00004b58    00000074     ti.uia.runtime.aem4f : QueueDescriptor.oem4f (.text:ti_uia_runtime_QueueDescriptor_addToList__E)
                  00004bcc    00000004     i2ctmp006_pem4f.oem4f (.text:ti_sysbios_heaps_HeapMem_Module_GateProxy_enter__E)
                  00004bd0    00000070     sysbios.aem4f : BIOS.obj (.text:ti_sysbios_family_arm_m3_TimestampProvider_get64__E)
                  00004c40    00000070                   : BIOS.obj (.text:ti_sysbios_knl_Clock_workFunc__E)
                  00004cb0    00000070                   : BIOS.obj (.text:ti_sysbios_knl_Task_exit__E)
                  00004d20    0000006e     rtsv7M4_T_le_v4SPD16_eabi.lib : fd_tos_t2.asm.obj (.text)
                  00004d8e    00000002     ti.uia.loggers.aem4f : LoggerStopMode.oem4f (.text:ti_uia_loggers_LoggerStopMode_setPriority__E)
                  00004d90    0000006d     ti.targets.arm.rtsarm.aem4f : System.oem4f (.text:xdc_runtime_System_formatNum__I)
                  00004dfd    00000003     --HOLE-- [fill = 0]
                  00004e00    0000006c     sysbios.aem4f : BIOS.obj (.text:ti_sysbios_knl_Swi_restoreHwi__E)
                  00004e6c    0000006c     ti.targets.arm.rtsarm.aem4f : Error.oem4f (.text:xdc_runtime_Error_print__E)
                  00004ed8    0000006c                                 : Memory.oem4f (.text:xdc_runtime_Memory_alloc__E)
                  00004f44    00000068     rtsv7M4_T_le_v4SPD16_eabi.lib : copy_decompress_lzss.c.obj (.text:decompress:lzss:__TI_decompress_lzss)
                  00004fac    00000068     drivers_MSP432P401R.aem4f : I2CMSP432.oem4f (.text:primeTransfer)
                  00005014    00000066                               : I2CMSP432.oem4f (.text:I2CMSP432_close)
                  0000507a    00000066     ti.uia.loggers.aem4f : LoggerStopMode.oem4f (.text:ti_uia_loggers_LoggerStopMode_flush__E)
                  000050e0    00000066     ti.targets.arm.rtsarm.aem4f : Core-mem.oem4f (.text:xdc_runtime_Core_deleteObject__I)
                  00005146    00000002     --HOLE-- [fill = 0]
                  00005148    00000064     sysbios.aem4f : BIOS.obj (.text:ti_sysbios_family_arm_m3_Hwi_dispatchC__I)
                  000051ac    00000004     i2ctmp006_pem4f.oem4f (.text:ti_sysbios_heaps_HeapMem_Module_GateProxy_leave__E)
                  000051b0    00000064     sysbios.aem4f : BIOS.obj (.text:ti_sysbios_knl_Semaphore_post__E)
                  00005214    00000004     i2ctmp006_pem4f.oem4f (.text:ti_sysbios_knl_Clock_TimerProxy_getMaxTicks__E)
                  00005218    00000064     sysbios.aem4f : BIOS.obj (.text:ti_sysbios_utils_Load_idleFxn__E)
                  0000527c    00000062     tirtosport.aem4f : HwiP_tirtos.oem4f (.text:HwiP_create)
                  000052de    00000002     --HOLE-- [fill = 0]
                  000052e0    00000060     sysbios.aem4f : BIOS.obj (.text:ti_sysbios_family_arm_m3_TimestampProvider_get32__E)
                  00005340    00000060                   : BIOS.obj (.text:ti_sysbios_knl_Task_schedule__I)
                  000053a0    0000005c     drivers_MSP432P401R.aem4f : GPIOMSP432.oem4f (.text:GPIO_init)
                  000053fc    00000004     i2ctmp006_pem4f.oem4f (.text:ti_sysbios_knl_Queue_destruct)
                  00005400    0000005c     sysbios.aem4f : BIOS.obj (.text:ti_sysbios_knl_Swi_run__I)
                  0000545c    00000004     i2ctmp006_pem4f.oem4f (.text:ti_sysbios_knl_Semaphore_destruct)
                  00005460    0000005c     sysbios.aem4f : BIOS.obj (.text:ti_sysbios_knl_Swi_schedule__I)
                  000054bc    00000004     ti.uia.loggers.aem4f : LoggerStopMode.oem4f (.text:ti_uia_loggers_LoggerStopMode_getContents__E)
                  000054c0    0000005c     sysbios.aem4f : BIOS.obj (.text:ti_sysbios_knl_Task_Module_startup__E)
                  0000551c    00000004     i2ctmp006_pem4f.oem4f (.text:ti_uia_loggers_LoggerStopMode_getFilterLevel__E)
                  00005520    0000005c     sysbios.aem4f : BIOS.obj (.text:ti_sysbios_knl_Task_startCore__E)
                  0000557c    0000005b     ti.targets.arm.rtsarm.aem4f : Text.oem4f (.text:xdc_runtime_Text_putLab__E)
                  000055d7    00000001     --HOLE-- [fill = 0]
                  000055d8    00000058     rtsv7M4_T_le_v4SPD16_eabi.lib : hostwrite.c.obj (.text:HOSTwrite)
                  00005630    00000058     tirtosport.aem4f : SemaphoreP_tirtos.oem4f (.text:SemaphoreP_create)
                  00005688    00000058     boot.aem4f : boot.oem4f (.text)
                  000056e0    00000058     i2ctmp006_pem4f.oem4f (.text:ti_sysbios_family_arm_m3_Hwi_construct)
                  00005738    00000058     sysbios.aem4f : m3_Hwi_asm_switch.obj (.text:ti_sysbios_family_arm_m3_Hwi_initStacks__E)
                  00005790    00000054     drivers_MSP432P401R.aem4f : GPIOMSP432.oem4f (.text:GPIO_hwiIntFxn)
                  000057e4    00000054                               : GPIOMSP432.oem4f (.text:GPIO_setCallback)
                  00005838    00000054                               : I2CMSP432.oem4f (.text:initHw)
                  0000588c    00000004     ti.uia.loggers.aem4f : LoggerStopMode.oem4f (.text:ti_uia_loggers_LoggerStopMode_getInstanceId__E)
                  00005890    00000054     sysbios.aem4f : BIOS.obj (.text:ti_sysbios_family_arm_m3_Timer_start__E)
                  000058e4    00000004     ti.uia.loggers.aem4f : LoggerStopMode.oem4f (.text:ti_uia_loggers_LoggerStopMode_getMaxLength__E)
                  000058e8    00000054     sysbios.aem4f : BIOS.obj (.text:ti_sysbios_family_arm_msp432_Timer_initDevice__I)
                  0000593c    00000004     ti.uia.loggers.aem4f : LoggerStopMode.oem4f (.text:ti_uia_loggers_LoggerStopMode_getPriority__E)
                  00005940    00000054     sysbios.aem4f : BIOS.obj (.text:ti_sysbios_family_arm_msp432_init_Boot_configureClocksHigh)
                  00005994    00000054     i2ctmp006_pem4f.oem4f (.text:ti_sysbios_knl_Task_construct)
                  000059e8    00000054     ti.targets.arm.rtsarm.aem4f : Assert.oem4f (.text:xdc_runtime_Assert_raise__I)
                  00005a3c    00000050     msp432p4xx_driverlib.lib : pcm.o (.text:PCM_shutdownDevice)
                  00005a8c    00000004     ti.uia.loggers.aem4f : LoggerStopMode.oem4f (.text:ti_uia_loggers_LoggerStopMode_getTransferType__E)
                  00005a90    00000050     sysbios.aem4f : BIOS.obj (.text:ti_sysbios_family_arm_m3_Hwi_Module_startup__E)
                  00005ae0    00000050     ti.targets.arm.rtsarm.aem4f : Startup.oem4f (.text:xdc_runtime_Startup_exec__E)
                  00005b30    00000050                                 : Text.oem4f (.text:xdc_runtime_Text_visitRope2__I)
                  00005b80    0000004c     rtsv7M4_T_le_v4SPD16_eabi.lib : cpy_tbl.c.obj (.text:copy_in)
                  00005bcc    0000004c     i2ctmp006.obj (.text:main)
                  00005c18    0000004c     sysbios.aem4f : BIOS.obj (.text:ti_sysbios_family_arm_msp432_Timer_start__E)
                  00005c64    00000004     ti.targets.arm.rtsarm.aem4f : Error.oem4f (.text:xdc_runtime_Error_getSite__E)
                  00005c68    0000004c     sysbios.aem4f : BIOS.obj (.text:ti_sysbios_heaps_HeapMem_getStats__E)
                  00005cb4    00000004     i2ctmp006_pem4f.oem4f (.text:xdc_runtime_System_Module_GateProxy_enter__E)
                  00005cb8    0000004c     sysbios.aem4f : BIOS.obj (.text:ti_sysbios_knl_Swi_runLoop__I)
                  00005d04    00000004     i2ctmp006_pem4f.oem4f (.text:xdc_runtime_System_Module_GateProxy_leave__E)
                  00005d08    0000004c     sysbios.aem4f : BIOS.obj (.text:ti_sysbios_knl_Task_allBlockedFunction__I)
                  00005d54    0000004c     ti.uia.loggers.aem4f : LoggerStopMode.oem4f (.text:ti_uia_loggers_LoggerStopMode_Module_startup__E)
                  00005da0    00000048     msp432p4xx_driverlib.lib : gpio.o (.text:GPIO_setAsPeripheralModuleFunctionInputPin)
                  00005de8    00000048     sysbios.aem4f : BIOS.obj (.text:ti_sysbios_family_arm_m3_Hwi_disableInterrupt__E)
                  00005e30    00000048                   : BIOS.obj (.text:ti_sysbios_family_arm_m3_Hwi_enableInterrupt__E)
                  00005e78    00000048                   : BIOS.obj (.text:ti_sysbios_family_arm_m3_Hwi_excReserved__I)
                  00005ec0    00000048                   : BIOS.obj (.text:ti_sysbios_family_arm_m3_Timer_initDevice__I)
                  00005f08    00000048                   : BIOS.obj (.text:ti_sysbios_family_arm_m3_Timer_setPeriod__E)
                  00005f50    00000046     ti.targets.arm.rtsarm.aem4f : Core-params.oem4f (.text:xdc_runtime_Core_assignParams__I)
                  00005f96    00000002     --HOLE-- [fill = 0]
                  00005f98    00000044     drivers_MSP432P401R.aem4f : PowerMSP432.oem4f (.text:Power_init)
                  00005fdc    00000004     ti.targets.arm.rtsarm.aem4f : System.oem4f (.text:xdc_runtime_System_aprintf_va__F)
                  00005fe0    00000044     sysbios.aem4f : BIOS.obj (.text:ti_sysbios_family_arm_m3_Hwi_getStackInfo__E)
                  00006024    00000004     ti.targets.arm.rtsarm.aem4f : System.oem4f (.text:xdc_runtime_System_printf_va__F)
                  00006028    00000044     sysbios.aem4f : BIOS.obj (.text:ti_sysbios_knl_Swi_post__E)
                  0000606c    00000044     ti.uia.loggers.aem4f : LoggerStopMode.oem4f (.text:ti_uia_loggers_LoggerStopMode_initBuffer__I)
                  000060b0    00000044     ti.targets.arm.rtsarm.aem4f : Error.oem4f (.text:xdc_runtime_Error_setX__E)
                  000060f4    00000044                                 : SysMin.oem4f (.text:xdc_runtime_SysMin_flush__E)
                  00006138    00000044                                 : Text.oem4f (.text:xdc_runtime_Text_xprintf__I)
                  0000617c    00000042     drivers_MSP432P401R.aem4f : I2CMSP432.oem4f (.text:completeTransfer)
                  000061be    00000002     --HOLE-- [fill = 0]
                  000061c0    00000040     msp432p4xx_driverlib.lib : flash.o (.text:FlashCtl_disableReadBuffering)
                  00006200    00000040                              : i2c.o (.text:I2C_masterSendMultiByteFinish)
                  00006240    00000040     drivers_MSP432P401R.aem4f : PowerMSP432.oem4f (.text:notify)
                  00006280    00000040     rtsv7M4_T_le_v4SPD16_eabi.lib : u_divt2.asm.obj (.text)
                  000062c0    00000040     sysbios.aem4f : BIOS.obj (.text:ti_sysbios_family_arm_msp432_Timer_Module_startup__E)
                  00006300    00000040                   : BIOS.obj (.text:ti_sysbios_family_arm_msp432_Timer_startup__E)
                  00006340    00000040                   : BIOS.obj (.text:ti_sysbios_heaps_HeapMem_Instance_init__E)
                  00006380    0000003e     msp432p4xx_driverlib.lib : i2c.o (.text:I2C_initMaster)
                  000063be    0000003c     power_tirtos_MSP432P401R.aem4f : PowerMSP432_tirtos.oem4f (.text:PowerMSP432_sleepPolicy)
                  000063fa    00000006     drivers_MSP432P401R.aem4f : I2CMSP432.oem4f (.text:I2CMSP432_control)
                  00006400    0000003c     sysbios.aem4f : BIOS.obj (.text:ti_sysbios_family_arm_m3_Hwi_excSvCall__I)
                  0000643c    00000004     --HOLE-- [fill = 0]
                  00006440    0000003c                   : BIOS.obj (.text:ti_sysbios_heaps_HeapMem_init__I)
                  0000647c    00000004     --HOLE-- [fill = 0]
                  00006480    0000003c                   : BIOS.obj (.text:ti_sysbios_knl_Swi_restore__E)
                  000064bc    00000038     drivers_MSP432P401R.aem4f : I2C.oem4f (.text:I2C_init)
                  000064f4    00000038     rtsv7M4_T_le_v4SPD16_eabi.lib : trgmsg.c.obj (.text:__TI_writemsg)
                  0000652c    00000038     drivers_MSP432P401R.aem4f : I2CMSP432.oem4f (.text:perfChangeNotifyFxn)
                  00006564    00000038     rtsv7M4_T_le_v4SPD16_eabi.lib : fs_tod_t2.asm.obj (.text)
                  0000659c    00000004     --HOLE-- [fill = 0]
                  000065a0    00000038     sysbios.aem4f : BIOS.obj (.text:ti_sysbios_family_arm_m3_Hwi_excNoIsr__I)
                  000065d8    00000038     ti.targets.arm.rtsarm.aem4f : SysMin.oem4f (.text:xdc_runtime_SysMin_putch__E)
                  00006610    00000038                                 : System.oem4f (.text:xdc_runtime_System_atexit__E)
                  00006648    00000034     msp432p4xx_driverlib.lib : flash.o (.text:FlashCtl_enableReadBuffering)
                  0000667c    00000034     rtsv7M4_T_le_v4SPD16_eabi.lib : trgmsg.c.obj (.text:__TI_readmsg)
                  000066b0    00000034     i2ctmp006_pem4f.oem4f (.text:ti_sysbios_BIOS_startFunc__I)
                  000066e4    00000004     --HOLE-- [fill = 0]
                  000066e8    00000034     sysbios.aem4f : BIOS.obj (.text:ti_sysbios_family_arm_m3_Hwi_Instance_finalize__E)
                  0000671c    00000004     --HOLE-- [fill = 0]
                  00006720    00000034                   : BIOS.obj (.text:ti_sysbios_family_arm_m3_Hwi_excNmi__I)
                  00006754    00000004     --HOLE-- [fill = 0]
                  00006758    00000034                   : BIOS.obj (.text:ti_sysbios_family_arm_m3_Timer_periodicStub__I)
                  0000678c    00000004     --HOLE-- [fill = 0]
                  00006790    00000034                   : BIOS.obj (.text:ti_sysbios_hal_Hwi_checkStack)
                  000067c4    00000034     ti.uia.loggers.aem4f : LoggerStopMode.oem4f (.text:ti_uia_loggers_LoggerStopMode_reset__E)
                  000067f8    00000034     ti.targets.arm.rtsarm.aem4f : Core-label.oem4f (.text:xdc_runtime_Core_assignLabel__I)
                  0000682c    00000033                                 : Text.oem4f (.text:xdc_runtime_Text_printVisFxn__I)
                  0000685f    00000001     --HOLE-- [fill = 0]
                  00006860    00000032     sysbios.aem4f : BIOS.obj (.text:ti_sysbios_hal_Hwi_initStack)
                  00006892    00000002     --HOLE-- [fill = 0]
                  00006894    00000030     msp432p4xx_driverlib.lib : gpio.o (.text:GPIO_getEnabledInterruptStatus)
                  000068c4    00000030                              : gpio.o (.text:GPIO_setAsInputPinWithPullDownResistor)
                  000068f4    00000030                              : gpio.o (.text:GPIO_setAsInputPinWithPullUpResistor)
                  00006924    00000030     drivers_MSP432P401R.aem4f : I2C.oem4f (.text:I2C_open)
                  00006954    00000030     i2ctmp006_pem4f.oem4f (.text:ti_sysbios_BIOS_atExitFunc__I)
                  00006984    00000004     --HOLE-- [fill = 0]
                  00006988    00000030     sysbios.aem4f : BIOS.obj (.text:ti_sysbios_family_arm_m3_TaskSupport_start__E)
                  000069b8    00000030                   : BIOS.obj (.text:ti_sysbios_family_arm_msp432_Timer_setPeriod__E)
                  000069e8    00000030     i2ctmp006_pem4f.oem4f (.text:ti_sysbios_gates_GateHwi_Object__create__S)
                  00006a18    00000030     i2ctmp006_pem4f.oem4f (.text:ti_sysbios_gates_GateMutex_Object__create__S)
                  00006a48    00000030     sysbios.aem4f : BIOS.obj (.text:ti_sysbios_gates_GateMutex_enter__E)
                  00006a78    00000030     i2ctmp006_pem4f.oem4f (.text:ti_sysbios_heaps_HeapMem_Object__create__S)
                  00006aa8    00000030     i2ctmp006_pem4f.oem4f (.text:ti_sysbios_knl_Semaphore_construct)
                  00006ad8    00000030     sysbios.aem4f : BIOS.obj (.text:ti_sysbios_knl_Semaphore_pendTimeout__I)
                  00006b08    00000030                   : BIOS.obj (.text:ti_sysbios_knl_Task_processVitalTaskFlag__I)
                  00006b38    00000030                   : BIOS.obj (.text:ti_sysbios_knl_Task_unblockI__E)
                  00006b68    00000030                   : BIOS.obj (.text:ti_sysbios_utils_Load_updateCurrentThreadTime__E)
                  00006b98    00000030     i2ctmp006_pem4f.oem4f (.text:ti_uia_loggers_LoggerStopMode_Object__create__S)
                  00006bc8    00000030     ti.targets.arm.rtsarm.aem4f : SysMin.oem4f (.text:xdc_runtime_SysMin_abort__E)
                  00006bf8    00000030                                 : System.oem4f (.text:xdc_runtime_System_processAtExit__E)
                  00006c28    0000002e     rtsv7M4_T_le_v4SPD16_eabi.lib : i_tofd_t2.asm.obj (.text)
                  00006c56    00000002     --HOLE-- [fill = 0]
                  00006c58    0000002c     msp432p4xx_driverlib.lib : gpio.o (.text:GPIO_setAsInputPin)
                  00006c84    0000002c                              : pcm.o (.text:PCM_getCoreVoltageLevel)
                  00006cb0    0000002c     power_tirtos_MSP432P401R.aem4f : PowerMSP432_tirtos.oem4f (.text:PowerMSP432_updateFreqs)
                  00006cdc    0000002c     drivers_MSP432P401R.aem4f : PowerMSP432.oem4f (.text:Power_releaseConstraint)
                  00006d08    0000002c                               : PowerMSP432.oem4f (.text:Power_setConstraint)
                  00006d34    0000002c     i2ctmp006_pem4f.oem4f (.text:ti_sysbios_knl_Clock_doTick__I)
                  00006d60    0000002c     i2ctmp006_pem4f.oem4f (.text:ti_sysbios_knl_Queue_construct)
                  00006d8c    00000004     --HOLE-- [fill = 0]
                  00006d90    0000002c     sysbios.aem4f : BIOS.obj (.text:ti_sysbios_knl_Task_restore__E)
                  00006dbc    0000002c     ti.targets.arm.rtsarm.aem4f : Text.oem4f (.text:xdc_runtime_Text_cordText__E)
                  00006de8    0000002a     msp432p4xx_driverlib.lib : pcm.o (.text:PCM_getPowerMode)
                  00006e12    0000002a     ti.targets.arm.rtsarm.aem4f : System.oem4f (.text:xdc_runtime_System_putchar__I)
                  00006e3c    00000028     msp432p4xx_driverlib.lib : flash.o (.text:FlashCtl_setWaitState)
                  00006e64    00000028                              : pcm.o (.text:PCM_gotoLPM0)
                  00006e8c    00000004     --HOLE-- [fill = 0]
                  00006e90    00000028     sysbios.aem4f : BIOS.obj (.text:ti_sysbios_knl_Clock_addI__E)
                  00006eb8    00000028                   : BIOS.obj (.text:ti_sysbios_knl_Swi_Module_startup__E)
                  00006ee0    00000026     drivers_MSP432P401R.aem4f : List.oem4f (.text:List_put)
                  00006f06    00000026     sysbios.aem4f : m3_Hwi_asm.obj (.text:ti_sysbios_family_arm_m3_Hwi_pendSV__I)
                  00006f2c    00000026     ti.targets.arm.rtsarm.aem4f : System.oem4f (.text:xdc_runtime_System_avprintf__E)
                  00006f52    00000002     --HOLE-- [fill = 0]
                  00006f54    00000024     msp432p4xx_driverlib.lib : cs.o (.text:CS_setDCOCenteredFrequency)
                  00006f78    00000024                              : gpio.o (.text:GPIO_setAsOutputPin)
                  00006f9c    00000024                              : i2c.o (.text:I2C_masterSendMultiByteNext)
                  00006fc0    00000024                              : rtc_c.o (.text:RTC_C_holdClock)
                  00006fe4    00000024                              : rtc_c.o (.text:RTC_C_startClock)
                  00007008    00000024     i2ctmp006_pem4f.oem4f (.text:ti_sysbios_BIOS_errorRaiseHook__I)
                  0000702c    00000024     i2ctmp006_pem4f.oem4f (.text:ti_sysbios_BIOS_registerRTSLock__I)
                  00007050    00000024     i2ctmp006_pem4f.oem4f (.text:ti_sysbios_BIOS_removeRTSLock__I)
                  00007074    00000004     --HOLE-- [fill = 0]
                  00007078    00000024     sysbios.aem4f : BIOS.obj (.text:ti_sysbios_family_arm_m3_Timer_Module_startup__E)
                  0000709c    00000004     --HOLE-- [fill = 0]
                  000070a0    00000024                   : BIOS.obj (.text:ti_sysbios_family_arm_m3_Timer_postInit__I)
                  000070c4    00000004     --HOLE-- [fill = 0]
                  000070c8    00000024                   : BIOS.obj (.text:ti_sysbios_family_arm_m3_Timer_startup__E)
                  000070ec    00000004     --HOLE-- [fill = 0]
                  000070f0    00000024                   : BIOS.obj (.text:ti_sysbios_family_arm_msp432_ClockFreqs_setFrequency__E)
                  00007114    00000004     --HOLE-- [fill = 0]
                  00007118    00000024                   : BIOS.obj (.text:ti_sysbios_family_arm_msp432_Timer_postInit__I)
                  0000713c    00000024     i2ctmp006_pem4f.oem4f (.text:ti_sysbios_gates_GateMutex_Object__delete__S)
                  00007160    00000024     sysbios.aem4f : BIOS.obj (.text:ti_sysbios_knl_Clock_Module_startup__E)
                  00007184    00000004     --HOLE-- [fill = 0]
                  00007188    00000024                   : BIOS.obj (.text:ti_sysbios_knl_Semaphore_Instance_init__E)
                  000071ac    00000004     --HOLE-- [fill = 0]
                  000071b0    00000024                   : BIOS.obj (.text:ti_sysbios_knl_Task_restoreHwi__E)
                  000071d4    00000004     --HOLE-- [fill = 0]
                  000071d8    00000024                   : BIOS.obj (.text:ti_sysbios_utils_Load_updateThreadContexts__E)
                  000071fc    00000024     ti.targets.arm.rtsarm.aem4f : System.oem4f (.text:xdc_runtime_System_vprintf__E)
                  00007220    00000022     i2ctmp006_pem4f.oem4f (.text:xdc_runtime_SysMin_output__I)
                  00007242    00000002     --HOLE-- [fill = 0]
                  00007244    00000020     msp432p4xx_driverlib.lib : gpio.o (.text:GPIO_interruptEdgeSelect)
                  00007264    00000020     drivers_MSP432P401R.aem4f : PowerMSP432.oem4f (.text:PowerMSP432_getFreqs)
                  00007284    00000020                               : PowerMSP432.oem4f (.text:Power_unregisterNotify)
                  000072a4    00000020     rtsv7M4_T_le_v4SPD16_eabi.lib : u_tofd_t2.asm.obj (.text)
                  000072c4    00000020     i2ctmp006_pem4f.oem4f (.text:ti_sysbios_BIOS_rtsLock__I)
                  000072e4    00000020     sysbios.aem4f : m3_Hwi_asm.obj (.text:ti_sysbios_family_arm_m3_Hwi_excHandlerAsm__I)
                  00007304    00000004     --HOLE-- [fill = 0]
                  00007308    00000020                   : BIOS.obj (.text:ti_sysbios_family_arm_m3_Hwi_excHandler__I)
                  00007328    00000020                   : BIOS.obj (.text:ti_sysbios_family_arm_m3_TimestampProvider_Module_startup__E)
                  00007348    00000020     i2ctmp006_pem4f.oem4f (.text:ti_sysbios_gates_GateHwi_Object__delete__S)
                  00007368    00000020     i2ctmp006_pem4f.oem4f (.text:ti_sysbios_heaps_HeapMem_Object__delete__S)
                  00007388    00000020     sysbios.aem4f : BIOS.obj (.text:ti_sysbios_knl_Idle_run__E)
                  000073a8    00000020     i2ctmp006_pem4f.oem4f (.text:ti_sysbios_knl_Semaphore_Object__destruct__S)
                  000073c8    00000020     i2ctmp006_pem4f.oem4f (.text:ti_uia_loggers_LoggerStopMode_Object__delete__S)
                  000073e8    00000020     ti.targets.arm.rtsarm.aem4f : Registry.oem4f (.text:xdc_runtime_Registry_findById__E)
                  00007408    00000020                                 : SysMin.oem4f (.text:xdc_runtime_SysMin_Module_startup__E)
                  00007428    0000001e     sysbios.aem4f : m3_Hwi_asm_switch.obj (.text:ti_sysbios_family_xxx_Hwi_switchAndRunFunc)
                  00007446    00000002     --HOLE-- [fill = 0]
                  00007448    0000001c     msp432p4xx_driverlib.lib : pcm.o (.text:PCM_enableRudeMode)
                  00007464    0000001c     drivers_MSP432P401R.aem4f : PowerMSP432.oem4f (.text:Power_registerNotify)
                  00007480    0000001c     i2ctmp006_pem4f.oem4f (.text:ti_sysbios_family_arm_m3_Hwi_Object__destruct__S)
                  0000749c    00000004     --HOLE-- [fill = 0]
                  000074a0    0000001c     sysbios.aem4f : BIOS.obj (.text:ti_sysbios_family_arm_m3_Timer_stop__E)
                  000074bc    00000004     --HOLE-- [fill = 0]
                  000074c0    0000001c                   : BIOS.obj (.text:ti_sysbios_gates_GateMutex_Instance_init__E)
                  000074dc    0000001c     i2ctmp006_pem4f.oem4f (.text:ti_sysbios_knl_Queue_Object__destruct__S)
                  000074f8    0000001c     sysbios.aem4f : BIOS.obj (.text:ti_sysbios_knl_Queue_put__E)
                  00007514    00000004     --HOLE-- [fill = 0]
                  00007518    0000001c                   : BIOS.obj (.text:ti_sysbios_knl_Task_enter__I)
                  00007534    0000001c     ti.uia.loggers.aem4f : LoggerStopMode.oem4f (.text:ti_uia_loggers_LoggerStopMode_Instance_init__E)
                  00007550    0000001c     ti.targets.arm.rtsarm.aem4f : Error.oem4f (.text:xdc_runtime_Error_raiseX__E)
                  0000756c    0000001c                                 : Memory.oem4f (.text:xdc_runtime_Memory_valloc__E)
                  00007588    0000001c                                 : SysMin.oem4f (.text:xdc_runtime_SysMin_exit__E)
                  000075a4    0000001c                                 : System.oem4f (.text:xdc_runtime_System_abort__E)
                  000075c0    0000001a     drivers_MSP432P401R.aem4f : List.oem4f (.text:List_remove)
                  000075da    0000001a     i2ctmp006_pem4f.oem4f (.text:ti_sysbios_family_arm_m3_Hwi_Handle__label__S)
                  000075f4    0000001a     i2ctmp006_pem4f.oem4f (.text:ti_sysbios_gates_GateHwi_Handle__label__S)
                  0000760e    0000001a     i2ctmp006_pem4f.oem4f (.text:ti_sysbios_gates_GateMutex_Handle__label__S)
                  00007628    0000001a     i2ctmp006_pem4f.oem4f (.text:ti_sysbios_heaps_HeapMem_Handle__label__S)
                  00007642    0000001a     i2ctmp006_pem4f.oem4f (.text:ti_sysbios_knl_Swi_Handle__label__S)
                  0000765c    0000001a     i2ctmp006_pem4f.oem4f (.text:ti_sysbios_knl_Task_Handle__label__S)
                  00007676    0000001a     i2ctmp006_pem4f.oem4f (.text:ti_uia_loggers_LoggerStopMode_Handle__label__S)
                  00007690    0000001a     i2ctmp006_pem4f.oem4f (.text:xdc_runtime_System_aprintf__E)
                  000076aa    0000001a     i2ctmp006_pem4f.oem4f (.text:xdc_runtime_System_printf__E)
                  000076c4    00000018     msp432p4xx_driverlib.lib : gpio.o (.text:GPIO_clearInterruptFlag)
                  000076dc    00000018                              : gpio.o (.text:GPIO_setDriveStrengthLow)
                  000076f4    00000018                              : gpio.o (.text:GPIO_setOutputLowOnPin)
                  0000770c    00000018                              : i2c.o (.text:I2C_masterIsStartSent)
                  00007724    00000018                              : wdt_a.o (.text:WDT_A_holdTimer)
                  0000773c    00000018     rtsv7M4_T_le_v4SPD16_eabi.lib : args_main.c.obj (.text:_args_main)
                  00007754    00000018     i2ctmp006_pem4f.oem4f (.text:ti_sysbios_BIOS_rtsUnlock__I)
                  0000776c    00000018     i2ctmp006_pem4f.oem4f (.text:ti_sysbios_family_arm_m3_Hwi_Module__startupDone__F)
                  00007784    00000018     sysbios.aem4f : m3_TaskSupport_asm.obj (.text:ti_sysbios_family_arm_m3_TaskSupport_swap__E)
                  0000779c    00000018     i2ctmp006_pem4f.oem4f (.text:ti_sysbios_family_arm_msp432_Timer_Module__startupDone__F)
                  000077b4    00000004     --HOLE-- [fill = 0]
                  000077b8    00000018     sysbios.aem4f : BIOS.obj (.text:ti_sysbios_gates_GateMutex_leave__E)
                  000077d0    00000018     ti.targets.arm.rtsarm.aem4f : Error.oem4f (.text:xdc_runtime_Error_check__E)
                  000077e8    00000018                                 : System.oem4f (.text:xdc_runtime_System_exit__E)
                  00007800    00000018                                 : Text.oem4f (.text:xdc_runtime_Text_ropeText__E)
                  00007818    00000016     tirtosport.aem4f : HwiP_tirtos.oem4f (.text:HwiP_delete)
                  0000782e    00000016                      : SemaphoreP_tirtos.oem4f (.text:SemaphoreP_delete)
                  00007844    00000016     i2ctmp006_pem4f.oem4f (.text:ti_sysbios_BIOS_exitFunc__I)
                  0000785a    00000016     i2ctmp006.obj (.text:ti_sysbios_knl_Task_Params_init)
                  00007870    00000016     sysbios.aem4f : BIOS.obj (.text:ti_sysbios_knl_Task_unblock__E)
                  00007886    00000016     ti.uia.loggers.aem4f : LoggerStopMode.oem4f (.text:ti_uia_loggers_LoggerStopMode_disable__E)
                  0000789c    00000016                          : LoggerStopMode.oem4f (.text:ti_uia_loggers_LoggerStopMode_enable__E)
                  000078b2    00000002     --HOLE-- [fill = 0]
                  000078b4    00000014     msp432p4xx_driverlib.lib : gpio.o (.text:GPIO_setDriveStrengthHigh)
                  000078c8    00000014                              : gpio.o (.text:GPIO_setOutputHighOnPin)
                  000078dc    00000014     drivers_MSP432P401R.aem4f : PowerMSP432.oem4f (.text:Power_idleFunc)
                  000078f0    00000014     msp432p4xx_driverlib.lib : wdt_a.o (.text:WDT_A_startTimer)
                  00007904    00000014     rtsv7M4_T_le_v4SPD16_eabi.lib : s_copysign.c.obj (.text:copysign)
                  00007918    00000014                                   : strlen.c.obj (.text:strlen)
                  0000792c    00000014     i2ctmp006_pem4f.oem4f (.text:ti_sysbios_family_arm_m3_Hwi_Object__get__S)
                  00007940    00000014     sysbios.aem4f : BIOS.obj (.text:ti_sysbios_family_arm_m3_Hwi_switchFromBootStack__E)
                  00007954    00000014     i2ctmp006_pem4f.oem4f (.text:ti_sysbios_heaps_HeapMem_Object__get__S)
                  00007968    00000014     i2ctmp006_pem4f.oem4f (.text:ti_sysbios_knl_Swi_Object__get__S)
                  0000797c    00000012     MSP_EXP432P401R.obj (.text:MSP_EXP432P401R_initI2C)
                  0000798e    00000012     tirtosport.aem4f : SemaphoreP_tirtos.oem4f (.text:SemaphoreP_pend)
                  000079a0    00000012     sysbios.aem4f : BIOS.obj (.text:ti_sysbios_hal_Hwi_Module_startup__E)
                  000079b2    00000012     i2ctmp006_pem4f.oem4f (.text:xdc_runtime_Startup_exec__I)
                  000079c4    00000010     msp432p4xx_driverlib.lib : gpio.o (.text:GPIO_getInterruptStatus)
                  000079d4    00000010     drivers_MSP432P401R.aem4f : I2C.oem4f (.text:I2C_Params_init)
                  000079e4    00000010     msp432p4xx_driverlib.lib : i2c.o (.text:I2C_masterReceiveMultiByteStop)
                  000079f4    00000010                              : i2c.o (.text:I2C_masterReceiveStart)
                  00007a04    00000010                              : i2c.o (.text:I2C_masterSendStart)
                  00007a14    00000010                              : pcm.o (.text:PCM_gotoLPM4)
                  00007a24    00000004     --HOLE-- [fill = 0]
                  00007a28    00000010     sysbios.aem4f : BIOS.obj (.text:ti_sysbios_BIOS_exit__E)
                  00007a38    00000010                   : BIOS.obj (.text:ti_sysbios_BIOS_getCpuFreq__E)
                  00007a48    00000010                   : BIOS.obj (.text:ti_sysbios_BIOS_setCpuFreq__E)
                  00007a58    00000010                   : BIOS.obj (.text:ti_sysbios_BIOS_setThreadType__E)
                  00007a68    00000010                   : BIOS.obj (.text:ti_sysbios_BIOS_start__E)
                  00007a78    00000010                   : m3_TaskSupport_asm.obj (.text:ti_sysbios_family_arm_m3_TaskSupport_glue)
                  00007a88    00000010                   : BIOS.obj (.text:ti_sysbios_family_arm_msp432_init_Boot_disableWatchdog)
                  00007a98    00000010                   : BIOS.obj (.text:ti_sysbios_gates_GateMutex_Instance_finalize__E)
                  00007aa8    00000010                   : BIOS.obj (.text:ti_sysbios_knl_Semaphore_Instance_finalize__E)
                  00007ab8    00000010                   : BIOS.obj (.text:ti_sysbios_knl_Swi_disable__E)
                  00007ac8    00000010     i2ctmp006_pem4f.oem4f (.text:ti_sysbios_knl_Task_Object__get__S)
                  00007ad8    00000010     sysbios.aem4f : BIOS.obj (.text:ti_sysbios_knl_Task_disable__E)
                  00007ae8    00000010     i2ctmp006_pem4f.oem4f (.text:ti_uia_loggers_LoggerStopMode_Object__get__S)
                  00007af8    00000010     ti.uia.loggers.aem4f : LoggerStopMode.oem4f (.text:ti_uia_loggers_LoggerStopMode_isEmpty__E)
                  00007b08    00000010     ti.targets.arm.rtsarm.aem4f : Gate.oem4f (.text:xdc_runtime_Gate_leaveSystem__E)
                  00007b18    00000010                                 : Memory.oem4f (.text:xdc_runtime_Memory_free__E)
                  00007b28    00000010                                 : SysMin.oem4f (.text:xdc_runtime_SysMin_ready__E)
                  00007b38    00000010                                 : System.oem4f (.text:xdc_runtime_System_vsnprintf__E)
                  00007b48    00000010     i2ctmp006_pem4f.oem4f (.text:xdc_runtime_Text_visitRope__I)
                  00007b58    0000000e     tirtosport.aem4f : HwiP_tirtos.oem4f (.text:HwiP_Params_init)
                  00007b66    0000000e     msp432p4xx_driverlib.lib : i2c.o (.text:I2C_clearInterruptFlag)
                  00007b74    0000000e                              : i2c.o (.text:I2C_disableInterrupt)
                  00007b82    0000000e                              : i2c.o (.text:I2C_setMode)
                  00007b90    0000000e     rtsv7M4_T_le_v4SPD16_eabi.lib : copy_decompress_none.c.obj (.text:decompress:none:__TI_decompress_none)
                  00007b9e    00000002     --HOLE-- [fill = 0]
                  00007ba0    0000000e     sysbios.aem4f : BIOS.obj (.text:ti_sysbios_knl_Clock_removeI__E)
                  00007bae    00000002     --HOLE-- [fill = 0]
                  00007bb0    0000000e                   : BIOS.obj (.text:ti_sysbios_knl_Idle_loop__E)
                  00007bbe    00000002     --HOLE-- [fill = 0]
                  00007bc0    0000000e                   : BIOS.obj (.text:ti_sysbios_knl_Queue_empty__E)
                  00007bce    0000000c     i2ctmp006_pem4f.oem4f (.text:.bootCodeSection:ti_sysbios_family_arm_msp432_init_Boot_init__I)
                  00007bda    0000000c     msp432p4xx_driverlib.lib : cpu.o (.text:CPU_cpsid)
                  00007be6    0000000c                              : cpu.o (.text:CPU_cpsie)
                  00007bf2    0000000c                              : i2c.o (.text:I2C_disableModule)
                  00007bfe    0000000c                              : i2c.o (.text:I2C_enableModule)
                  00007c0a    00000002     --HOLE-- [fill = 0]
                  00007c0c    0000000c                              : pcm.o (.text:PCM_getPowerState)
                  00007c18    0000000c     drivers_MSP432P401R.aem4f : PowerMSP432.oem4f (.text:Power_getConstraintMask)
                  00007c24    0000000c                               : PowerMSP432.oem4f (.text:Power_getPerformanceLevel)
                  00007c30    0000000c     rtsv7M4_T_le_v4SPD16_eabi.lib : _lock.c.obj (.text:_register_lock)
                  00007c3c    0000000c                                   : _lock.c.obj (.text:_register_unlock)
                  00007c48    0000000c                                   : copy_zero_init.c.obj (.text:decompress:ZI:__TI_zero_init)
                  00007c54    0000000c     i2ctmp006_pem4f.oem4f (.text:ti_sysbios_family_arm_m3_Hwi_Params__init__S)
                  00007c60    0000000c     sysbios.aem4f : BIOS.obj (.text:ti_sysbios_family_arm_m3_Hwi_disableFxn__E)
                  00007c6c    00000004     --HOLE-- [fill = 0]
                  00007c70    0000000c                   : BIOS.obj (.text:ti_sysbios_family_arm_m3_TaskSupport_checkStack__E)
                  00007c7c    00000004     --HOLE-- [fill = 0]
                  00007c80    0000000c                   : BIOS.obj (.text:ti_sysbios_family_arm_m3_TaskSupport_getStackAlignment__E)
                  00007c8c    00000004     --HOLE-- [fill = 0]
                  00007c90    0000000c                   : BIOS.obj (.text:ti_sysbios_family_arm_m3_TimestampProvider_startTimer__E)
                  00007c9c    00000004     --HOLE-- [fill = 0]
                  00007ca0    0000000c                   : BIOS.obj (.text:ti_sysbios_family_arm_msp432_Timer_getMaxTicks__E)
                  00007cac    00000004     --HOLE-- [fill = 0]
                  00007cb0    0000000c                   : BIOS.obj (.text:ti_sysbios_gates_GateHwi_enter__E)
                  00007cbc    00000004     --HOLE-- [fill = 0]
                  00007cc0    0000000c                   : BIOS.obj (.text:ti_sysbios_knl_Clock_getTicks__E)
                  00007ccc    0000000c     i2ctmp006_pem4f.oem4f (.text:ti_sysbios_knl_Queue_Object__get__S)
                  00007cd8    0000000c     i2ctmp006_pem4f.oem4f (.text:ti_sysbios_knl_Semaphore_Params__init__S)
                  00007ce4    0000000c     i2ctmp006_pem4f.oem4f (.text:ti_sysbios_knl_Task_Params__init__S)
                  00007cf0    0000000c     ti.targets.arm.rtsarm.aem4f : Error.oem4f (.text:xdc_runtime_Error_init__E)
                  00007cfc    0000000c                                 : Gate.oem4f (.text:xdc_runtime_Gate_enterSystem__E)
                  00007d08    0000000c                                 : Memory.oem4f (.text:xdc_runtime_Memory_calloc__E)
                  00007d14    0000000c                                 : Memory.oem4f (.text:xdc_runtime_Memory_getMaxDefaultTypeAlign__E)
                  00007d20    0000000c                                 : Startup.oem4f (.text:xdc_runtime_Startup_rtsDone__E)
                  00007d2c    0000000a     drivers_MSP432P401R.aem4f : I2CMSP432.oem4f (.text:I2CMSP432_init)
                  00007d36    0000000a                               : I2C.oem4f (.text:I2C_transfer)
                  00007d40    0000000a     tirtosport.aem4f : SemaphoreP_tirtos.oem4f (.text:SemaphoreP_post)
                  00007d4a    0000000a     i2ctmp006_pem4f.oem4f (.text:xdc_runtime_IHeap_alloc)
                  00007d54    0000000a     i2ctmp006_pem4f.oem4f (.text:xdc_runtime_IHeap_free)
                  00007d5e    00000008     msp432p4xx_driverlib.lib : i2c.o (.text:I2C_enableInterrupt)
                  00007d66    00000008     MSP_EXP432P401R.obj (.text:MSP_EXP432P401R_initGPIO)
                  00007d6e    00000008     MSP_EXP432P401R.obj (.text:MSP_EXP432P401R_initGeneral)
                  00007d76    00000008     msp432p4xx_driverlib.lib : pcm.o (.text:PCM_setPowerMode)
                  00007d7e    00000008                              : pcm.o (.text:PCM_setPowerState)
                  00007d86    00000008     tirtosport.aem4f : SemaphoreP_tirtos.oem4f (.text:SemaphoreP_Params_init)
                  00007d8e    00000002     --HOLE-- [fill = 0]
                  00007d90    00000008     rtsv7M4_T_le_v4SPD16_eabi.lib : errno.c.obj (.text:__aeabi_errno_addr)
                  00007d98    00000008     drivers_MSP432P401R.aem4f : I2CMSP432.oem4f (.text:blockingTransferCallback)
                  00007da0    00000008     sysbios.aem4f : BIOS.obj (.text:ti_sysbios_family_arm_m3_Hwi_doSwiRestore__I)
                  00007da8    00000008                   : BIOS.obj (.text:ti_sysbios_family_arm_m3_Hwi_startup__E)
                  00007db0    00000006     msp432p4xx_driverlib.lib : i2c.o (.text:I2C_getEnabledInterruptStatus)
                  00007db6    00000006                              : i2c.o (.text:I2C_getInterruptStatus)
                  00007dbc    00000006                              : i2c.o (.text:I2C_masterReceiveMultiByteNext)
                  00007dc2    00000006     ti.targets.arm.rtsarm.aem4f : System.oem4f (.text:xdc_runtime_System_Module_startup__E)
                  00007dc8    00000006     sysbios.aem4f : BIOS.obj (.text:ti_sysbios_family_arm_m3_Hwi_doTaskRestore__I)
                  00007dce    00000002     --HOLE-- [fill = 0]
                  00007dd0    00000006                   : BIOS.obj (.text:ti_sysbios_family_arm_m3_Hwi_restoreFxn__E)
                  00007dd6    00000002     --HOLE-- [fill = 0]
                  00007dd8    00000006                   : BIOS.obj (.text:ti_sysbios_gates_GateHwi_leave__E)
                  00007dde    00000002     --HOLE-- [fill = 0]
                  00007de0    00000006                   : BIOS.obj (.text:ti_sysbios_heaps_HeapMem_isBlocking__E)
                  00007de6    00000002     --HOLE-- [fill = 0]
                  00007de8    00000006                   : BIOS.obj (.text:ti_sysbios_knl_Queue_Instance_init__E)
                  00007dee    00000002     --HOLE-- [fill = 0]
                  00007df0    00000006                   : BIOS.obj (.text:ti_sysbios_knl_Swi_startup__E)
                  00007df6    00000002     --HOLE-- [fill = 0]
                  00007df8    00000004                   : BIOS.obj (.text:ti_sysbios_gates_GateHwi_query__E)
                  00007dfc    00000004     --HOLE-- [fill = 0]
                  00007e00    00000004                   : BIOS.obj (.text:ti_sysbios_gates_GateMutex_query__E)
                  00007e04    00000004     --HOLE-- [fill = 0]
                  00007e08    00000004                   : BIOS.obj (.text:ti_sysbios_knl_Task_startup__E)
                  00007e0c    00000004     --HOLE-- [fill = 0]
                  00007e10    00000002                   : BIOS.obj (.text:ti_sysbios_BIOS_linkedWithIncorrectBootLibrary__E)
                  00007e12    00000006     --HOLE-- [fill = 0]
                  00007e18    00000002                   : BIOS.obj (.text:ti_sysbios_family_arm_m3_TimestampProvider_rolloverFunc__E)
                  00007e1a    00000006     --HOLE-- [fill = 0]
                  00007e20    00000002                   : BIOS.obj (.text:ti_sysbios_gates_GateHwi_Instance_init__E)
                  00007e22    00000006     --HOLE-- [fill = 0]
                  00007e28    00000002                   : BIOS.obj (.text:ti_sysbios_knl_Clock_logTick__E)

.const     0    00007e30    000026d8     
                  00007e30    00001f5d     i2ctmp006_pem4f.oem4f (.const:xdc_runtime_Text_charTab__A)
                  00009d8d    00000001     i2ctmp006_pem4f.oem4f (.const:xdc_runtime_Error_policy__C)
                  00009d8e    000000fc     i2ctmp006_pem4f.oem4f (.const:xdc_runtime_Text_nodeTab__A)
                  00009e8a    00000002     i2ctmp006_pem4f.oem4f (.const:ti_sysbios_family_arm_m3_Hwi_Module__id__C)
                  00009e8c    00000004     i2ctmp006_pem4f.oem4f (.const:ti_sysbios_family_arm_m3_Hwi_E_NMI__C)
                  00009e90    00000098     rtsv7M4_T_le_v4SPD16_eabi.lib : s_atan.c.obj (.const:$O1$$)
                  00009f28    00000060     i2ctmp006_pem4f.oem4f (.const:ti_uia_loggers_LoggerStopMode_Module__FXNS__C)
                  00009f88    00000048     i2ctmp006_pem4f.oem4f (.const:.string)
                  00009fd0    0000003c     i2ctmp006_pem4f.oem4f (.const:ti_sysbios_knl_Task_Object__PARAMS__C)
                  0000a00c    00000004     i2ctmp006_pem4f.oem4f (.const:ti_sysbios_family_arm_m3_Hwi_E_alreadyDefined__C)
                  0000a010    00000030     rtsv7M4_T_le_v4SPD16_eabi.lib : e_pow.c.obj (.const:$O1$$)
                  0000a040    00000030     i2ctmp006_pem4f.oem4f (.const:ti_sysbios_family_arm_m3_Hwi_Object__PARAMS__C)
                  0000a070    0000002c     i2ctmp006_pem4f.oem4f (.const:xdc_runtime_Startup_sfxnTab__A)
                  0000a09c    00000028     i2ctmp006_pem4f.oem4f (.const:ti_sysbios_heaps_HeapMem_Module__FXNS__C)
                  0000a0c4    00000028     i2ctmp006_pem4f.oem4f (.const:ti_uia_loggers_LoggerStopMode_Object__PARAMS__C)
                  0000a0ec    00000024     i2ctmp006_pem4f.oem4f (.const:ti_sysbios_gates_GateHwi_Module__FXNS__C)
                  0000a110    00000024     i2ctmp006_pem4f.oem4f (.const:ti_sysbios_gates_GateMutex_Module__FXNS__C)
                  0000a134    00000024     i2ctmp006_pem4f.oem4f (.const:ti_sysbios_heaps_HeapMem_Object__PARAMS__C)
                  0000a158    00000024     i2ctmp006_pem4f.oem4f (.const:ti_sysbios_knl_Semaphore_Object__PARAMS__C)
                  0000a17c    00000020     drivers_MSP432P401R.aem4f : I2CMSP432.oem4f (.const)
                  0000a19c    00000020     i2ctmp006_pem4f.oem4f (.const:ti_sysbios_family_arm_m3_Hwi_Object__DESC__C)
                  0000a1bc    00000020     i2ctmp006_pem4f.oem4f (.const:ti_sysbios_gates_GateHwi_Object__DESC__C)
                  0000a1dc    00000020     i2ctmp006_pem4f.oem4f (.const:ti_sysbios_gates_GateMutex_Object__DESC__C)
                  0000a1fc    00000020     i2ctmp006_pem4f.oem4f (.const:ti_sysbios_heaps_HeapMem_Object__DESC__C)
                  0000a21c    00000020     i2ctmp006_pem4f.oem4f (.const:ti_sysbios_knl_Queue_Object__DESC__C)
                  0000a23c    00000020     i2ctmp006_pem4f.oem4f (.const:ti_sysbios_knl_Semaphore_Object__DESC__C)
                  0000a25c    00000020     i2ctmp006_pem4f.oem4f (.const:ti_sysbios_knl_Task_Object__DESC__C)
                  0000a27c    00000020     i2ctmp006_pem4f.oem4f (.const:ti_uia_loggers_LoggerStopMode_Object__DESC__C)
                  0000a29c    00000018     MSP_EXP432P401R.obj (.const:I2C_config)
                  0000a2b4    00000018     i2ctmp006_pem4f.oem4f (.const:ti_sysbios_gates_GateHwi_Object__PARAMS__C)
                  0000a2cc    00000018     i2ctmp006_pem4f.oem4f (.const:ti_sysbios_gates_GateMutex_Object__PARAMS__C)
                  0000a2e4    00000018     i2ctmp006_pem4f.oem4f (.const:ti_sysbios_knl_Queue_Object__PARAMS__C)
                  0000a2fc    00000016     i2ctmp006_pem4f.oem4f (.const:xdc_runtime_Startup_sfxnRts__A)
                  0000a312    00000002     i2ctmp006_pem4f.oem4f (.const:ti_sysbios_family_arm_m3_Timer_Module__id__C)
                  0000a314    00000014     MSP_EXP432P401R.obj (.const:GPIOMSP432_config)
                  0000a328    00000010     MSP_EXP432P401R.obj (.const:PowerMSP432_config)
                  0000a338    00000010     drivers_MSP432P401R.aem4f : I2C.oem4f (.const)
                  0000a348    00000010     MSP_EXP432P401R.obj (.const:i2cMSP432HWAttrs)
                  0000a358    0000000c     drivers_MSP432P401R.aem4f : GPIOMSP432.oem4f (.const:.string)
                  0000a364    0000000c     i2ctmp006_pem4f.oem4f (.const:ti_sysbios_knl_Idle_funcList__A)
                  0000a370    0000000c     i2ctmp006_pem4f.oem4f (.const:xdc_runtime_Startup_firstFxns__A)
                  0000a37c    00000008     i2ctmp006_pem4f.oem4f (.const:ti_sysbios_family_arm_m3_Hwi_excHookFuncs__A)
                  0000a384    00000008     i2ctmp006_pem4f.oem4f (.const:ti_sysbios_knl_Idle_funcList__C)
                  0000a38c    00000008     i2ctmp006_pem4f.oem4f (.const:xdc_runtime_Startup_firstFxns__C)
                  0000a394    00000008     i2ctmp006_pem4f.oem4f (.const:xdc_runtime_Startup_lastFxns__C)
                  0000a39c    00000004     i2ctmp006_pem4f.oem4f (.const:ti_sysbios_family_arm_m3_Hwi_E_busFault__C)
                  0000a3a0    00000004     i2ctmp006_pem4f.oem4f (.const:ti_sysbios_family_arm_m3_Hwi_E_debugMon__C)
                  0000a3a4    00000004     i2ctmp006_pem4f.oem4f (.const:ti_sysbios_family_arm_m3_Hwi_E_hardFault__C)
                  0000a3a8    00000004     i2ctmp006_pem4f.oem4f (.const:ti_sysbios_family_arm_m3_Hwi_E_memFault__C)
                  0000a3ac    00000004     i2ctmp006_pem4f.oem4f (.const:ti_sysbios_family_arm_m3_Hwi_E_noIsr__C)
                  0000a3b0    00000004     i2ctmp006_pem4f.oem4f (.const:ti_sysbios_family_arm_m3_Hwi_E_reserved__C)
                  0000a3b4    00000004     i2ctmp006_pem4f.oem4f (.const:ti_sysbios_family_arm_m3_Hwi_E_svCall__C)
                  0000a3b8    00000004     i2ctmp006_pem4f.oem4f (.const:ti_sysbios_family_arm_m3_Hwi_E_usageFault__C)
                  0000a3bc    00000004     i2ctmp006_pem4f.oem4f (.const:ti_sysbios_family_arm_m3_Hwi_NUM_INTERRUPTS__C)
                  0000a3c0    00000004     i2ctmp006_pem4f.oem4f (.const:ti_sysbios_family_arm_m3_Hwi_Object__count__C)
                  0000a3c4    00000004     i2ctmp006_pem4f.oem4f (.const:ti_sysbios_family_arm_m3_Hwi_ccr__C)
                  0000a3c8    00000004     i2ctmp006_pem4f.oem4f (.const:ti_sysbios_family_arm_m3_Hwi_excHandlerFunc__C)
                  0000a3cc    00000004     i2ctmp006_pem4f.oem4f (.const:ti_sysbios_family_arm_m3_Hwi_excHookFuncs__C)
                  0000a3d0    00000004     i2ctmp006_pem4f.oem4f (.const:ti_sysbios_family_arm_m3_Hwi_nullIsrFunc__C)
                  0000a3d4    00000004     i2ctmp006_pem4f.oem4f (.const:ti_sysbios_family_arm_m3_Hwi_priGroup__C)
                  0000a3d8    00000004     i2ctmp006_pem4f.oem4f (.const:ti_sysbios_family_arm_m3_TaskSupport_stackAlignment__C)
                  0000a3dc    00000004     i2ctmp006_pem4f.oem4f (.const:ti_sysbios_family_arm_m3_Timer_E_cannotSupport__C)
                  0000a3e0    00000004     i2ctmp006_pem4f.oem4f (.const:ti_sysbios_family_arm_m3_Timer_startupNeeded__C)
                  0000a3e4    00000004     i2ctmp006_pem4f.oem4f (.const:ti_sysbios_family_arm_msp432_Timer_numTimerDevices__C)
                  0000a3e8    00000004     i2ctmp006_pem4f.oem4f (.const:ti_sysbios_family_arm_msp432_Timer_startupNeeded__C)
                  0000a3ec    00000004     i2ctmp006_pem4f.oem4f (.const:ti_sysbios_gates_GateMutex_Instance_State_sem__O)
                  0000a3f0    00000004     i2ctmp006_pem4f.oem4f (.const:ti_sysbios_hal_Hwi_E_stackOverflow__C)
                  0000a3f4    00000004     i2ctmp006_pem4f.oem4f (.const:ti_sysbios_heaps_HeapMem_E_memory__C)
                  0000a3f8    00000004     i2ctmp006_pem4f.oem4f (.const:ti_sysbios_heaps_HeapMem_Module__gateObj__C)
                  0000a3fc    00000004     i2ctmp006_pem4f.oem4f (.const:ti_sysbios_heaps_HeapMem_Object__count__C)
                  0000a400    00000004     i2ctmp006_pem4f.oem4f (.const:ti_sysbios_heaps_HeapMem_reqAlign__C)
                  0000a404    00000004     i2ctmp006_pem4f.oem4f (.const:ti_sysbios_knl_Clock_Module_State_clockQ__O)
                  0000a408    00000004     i2ctmp006_pem4f.oem4f (.const:ti_sysbios_knl_Semaphore_Instance_State_pendQ__O)
                  0000a40c    00000004     i2ctmp006_pem4f.oem4f (.const:ti_sysbios_knl_Swi_Object__count__C)
                  0000a410    00000004     i2ctmp006_pem4f.oem4f (.const:ti_sysbios_knl_Task_E_spOutOfBounds__C)
                  0000a414    00000004     i2ctmp006_pem4f.oem4f (.const:ti_sysbios_knl_Task_E_stackOverflow__C)
                  0000a418    00000004     i2ctmp006_pem4f.oem4f (.const:ti_sysbios_knl_Task_Module_State_inactiveQ__O)
                  0000a41c    00000004     i2ctmp006_pem4f.oem4f (.const:ti_sysbios_knl_Task_Object__count__C)
                  0000a420    00000004     i2ctmp006_pem4f.oem4f (.const:ti_sysbios_knl_Task_allBlockedFunc__C)
                  0000a424    00000004     i2ctmp006_pem4f.oem4f (.const:ti_sysbios_knl_Task_defaultStackHeap__C)
                  0000a428    00000004     i2ctmp006_pem4f.oem4f (.const:ti_sysbios_knl_Task_defaultStackSize__C)
                  0000a42c    00000004     i2ctmp006_pem4f.oem4f (.const:ti_sysbios_knl_Task_numConstructedTasks__C)
                  0000a430    00000004     i2ctmp006_pem4f.oem4f (.const:ti_sysbios_utils_Load_postUpdate__C)
                  0000a434    00000004     i2ctmp006_pem4f.oem4f (.const:ti_sysbios_utils_Load_windowInMs__C)
                  0000a438    00000004     i2ctmp006_pem4f.oem4f (.const:ti_uia_loggers_LoggerStopMode_Module__diagsEnabled__C)
                  0000a43c    00000004     i2ctmp006_pem4f.oem4f (.const:ti_uia_loggers_LoggerStopMode_Module__diagsIncluded__C)
                  0000a440    00000004     i2ctmp006_pem4f.oem4f (.const:ti_uia_loggers_LoggerStopMode_Module__diagsMask__C)
                  0000a444    00000004     i2ctmp006_pem4f.oem4f (.const:ti_uia_loggers_LoggerStopMode_Object__count__C)
                  0000a448    00000004     i2ctmp006_pem4f.oem4f (.const:ti_uia_runtime_ILoggerSnapshot_Interface__BASE__C)
                  0000a44c    00000004     i2ctmp006_pem4f.oem4f (.const:ti_uia_runtime_IUIATransfer_Interface__BASE__C)
                  0000a450    00000004     i2ctmp006_pem4f.oem4f (.const:xdc_runtime_Assert_E_assertFailed__C)
                  0000a454    00000004     i2ctmp006_pem4f.oem4f (.const:xdc_runtime_Core_A_initializedParams__C)
                  0000a458    00000004     i2ctmp006_pem4f.oem4f (.const:xdc_runtime_Core_Module__diagsEnabled__C)
                  0000a45c    00000004     i2ctmp006_pem4f.oem4f (.const:xdc_runtime_Core_Module__diagsIncluded__C)
                  0000a460    00000004     i2ctmp006_pem4f.oem4f (.const:xdc_runtime_Core_Module__diagsMask__C)
                  0000a464    00000004     i2ctmp006_pem4f.oem4f (.const:xdc_runtime_Error_E_memory__C)
                  0000a468    00000004     i2ctmp006_pem4f.oem4f (.const:xdc_runtime_Error_Module__diagsEnabled__C)
                  0000a46c    00000004     i2ctmp006_pem4f.oem4f (.const:xdc_runtime_Error_Module__diagsIncluded__C)
                  0000a470    00000004     i2ctmp006_pem4f.oem4f (.const:xdc_runtime_Error_Module__diagsMask__C)
                  0000a474    00000004     i2ctmp006_pem4f.oem4f (.const:xdc_runtime_Error_Module__loggerFxn8__C)
                  0000a478    00000004     i2ctmp006_pem4f.oem4f (.const:xdc_runtime_Error_Module__loggerObj__C)
                  0000a47c    00000004     i2ctmp006_pem4f.oem4f (.const:xdc_runtime_Error_policyFxn__C)
                  0000a480    00000004     i2ctmp006_pem4f.oem4f (.const:xdc_runtime_Error_raiseHook__C)
                  0000a484    00000004     i2ctmp006_pem4f.oem4f (.const:xdc_runtime_IFilterLogger_Interface__BASE__C)
                  0000a488    00000004     i2ctmp006_pem4f.oem4f (.const:xdc_runtime_IGateProvider_Interface__BASE__C)
                  0000a48c    00000004     i2ctmp006_pem4f.oem4f (.const:xdc_runtime_IHeap_Interface__BASE__C)
                  0000a490    00000004     i2ctmp006_pem4f.oem4f (.const:xdc_runtime_ILogger_Interface__BASE__C)
                  0000a494    00000004     i2ctmp006_pem4f.oem4f (.const:xdc_runtime_IModule_Interface__BASE__C)
                  0000a498    00000004     i2ctmp006_pem4f.oem4f (.const:xdc_runtime_Log_L_error__C)
                  0000a49c    00000004     i2ctmp006_pem4f.oem4f (.const:xdc_runtime_Memory_defaultHeapInstance__C)
                  0000a4a0    00000004     i2ctmp006_pem4f.oem4f (.const:xdc_runtime_Startup_execImpl__C)
                  0000a4a4    00000004     i2ctmp006_pem4f.oem4f (.const:xdc_runtime_Startup_lastFxns__A)
                  0000a4a8    00000004     i2ctmp006_pem4f.oem4f (.const:xdc_runtime_Startup_maxPasses__C)
                  0000a4ac    00000004     i2ctmp006_pem4f.oem4f (.const:xdc_runtime_Startup_sfxnRts__C)
                  0000a4b0    00000004     i2ctmp006_pem4f.oem4f (.const:xdc_runtime_Startup_sfxnTab__C)
                  0000a4b4    00000004     i2ctmp006_pem4f.oem4f (.const:xdc_runtime_SysMin_bufSize__C)
                  0000a4b8    00000004     i2ctmp006_pem4f.oem4f (.const:xdc_runtime_SysMin_outputFunc__C)
                  0000a4bc    00000004     i2ctmp006_pem4f.oem4f (.const:xdc_runtime_System_Module__gateObj__C)
                  0000a4c0    00000004     i2ctmp006_pem4f.oem4f (.const:xdc_runtime_System_abortFxn__C)
                  0000a4c4    00000004     i2ctmp006_pem4f.oem4f (.const:xdc_runtime_System_exitFxn__C)
                  0000a4c8    00000004     i2ctmp006_pem4f.oem4f (.const:xdc_runtime_System_extendFxn__C)
                  0000a4cc    00000004     i2ctmp006_pem4f.oem4f (.const:xdc_runtime_System_maxAtexitHandlers__C)
                  0000a4d0    00000004     i2ctmp006_pem4f.oem4f (.const:xdc_runtime_Text_charTab__C)
                  0000a4d4    00000004     i2ctmp006_pem4f.oem4f (.const:xdc_runtime_Text_nameEmpty__C)
                  0000a4d8    00000004     i2ctmp006_pem4f.oem4f (.const:xdc_runtime_Text_nameStatic__C)
                  0000a4dc    00000004     i2ctmp006_pem4f.oem4f (.const:xdc_runtime_Text_nameUnknown__C)
                  0000a4e0    00000004     i2ctmp006_pem4f.oem4f (.const:xdc_runtime_Text_nodeTab__C)
                  0000a4e4    00000004     i2ctmp006_pem4f.oem4f (.const:xdc_runtime_Text_visitRopeFxn__C)
                  0000a4e8    00000002     i2ctmp006_pem4f.oem4f (.const:ti_sysbios_family_arm_m3_TimestampProvider_configTimer__C)
                  0000a4ea    00000002     i2ctmp006_pem4f.oem4f (.const:ti_sysbios_hal_Hwi_Module__id__C)
                  0000a4ec    00000002     i2ctmp006_pem4f.oem4f (.const:ti_sysbios_heaps_HeapMem_Module__id__C)
                  0000a4ee    00000002     i2ctmp006_pem4f.oem4f (.const:ti_sysbios_knl_Task_Module__id__C)
                  0000a4f0    00000002     i2ctmp006_pem4f.oem4f (.const:ti_sysbios_utils_Load_updateInIdle__C)
                  0000a4f2    00000002     i2ctmp006_pem4f.oem4f (.const:ti_uia_loggers_LoggerStopMode_Module__id__C)
                  0000a4f4    00000002     i2ctmp006_pem4f.oem4f (.const:ti_uia_loggers_LoggerStopMode_isTimestampEnabled__C)
                  0000a4f6    00000002     i2ctmp006_pem4f.oem4f (.const:xdc_runtime_Core_Module__id__C)
                  0000a4f8    00000002     i2ctmp006_pem4f.oem4f (.const:xdc_runtime_Error_Module__loggerDefined__C)
                  0000a4fa    00000002     i2ctmp006_pem4f.oem4f (.const:xdc_runtime_Error_maxDepth__C)
                  0000a4fc    00000002     i2ctmp006_pem4f.oem4f (.const:xdc_runtime_Memory_Module__id__C)
                  0000a4fe    00000002     i2ctmp006_pem4f.oem4f (.const:xdc_runtime_SysMin_flushAtExit__C)
                  0000a500    00000002     i2ctmp006_pem4f.oem4f (.const:xdc_runtime_Text_charCnt__C)
                  0000a502    00000002     i2ctmp006_pem4f.oem4f (.const:xdc_runtime_Text_isLoaded__C)
                  0000a504    00000002     i2ctmp006_pem4f.oem4f (.const:xdc_runtime_Text_registryModsLastId__C)
                  0000a506    00000002     i2ctmp006_pem4f.oem4f (.const:xdc_runtime_Text_unnamedModsLastId__C)

.cinit     0    0000a508    000002e0     
                  0000a508    000002ab     (.cinit..data.load) [load image, compression = lzss]
                  0000a7b3    00000001     --HOLE-- [fill = 0]
                  0000a7b4    0000000c     (__TI_handler_table)
                  0000a7c0    00000008     (.cinit..bss.load) [load image, compression = zero_init]
                  0000a7c8    00000008     (.cinit..vecs.load) [load image, compression = zero_init]
                  0000a7d0    00000018     (__TI_cinit_table)

.resetVecs 
*          0    00000000    0000003c     
                  00000000    0000003c     i2ctmp006_pem4f.oem4f (.resetVecs)

.bss       0    20000180    00001bb0     UNINITIALIZED
                  20000180    00000800     (.common:ti_sysbios_heaps_HeapMem_Instance_State_0_buf__A)
                  20000980    00000400     (.common:ti_uia_loggers_LoggerStopMode_Instance_State_1_packetArray__A)
                  20000d80    00000400     (.common:ti_uia_loggers_LoggerStopMode_Instance_State_2_packetArray__A)
                  20001180    00000280     (.common:task0Stack)
                  20001400    00000200     i2ctmp006_pem4f.oem4f (.bss:taskStackSection)
                  20001600    00000200     (.common:ti_uia_loggers_LoggerStopMode_Instance_State_0_packetArray__A)
                  20001800    00000140     (.common:ti_sysbios_family_arm_m3_Hwi_dispatchTable)
                  20001940    00000120     rtsv7M4_T_le_v4SPD16_eabi.lib : trgmsg.c.obj (.bss:_CIOBUF_)
                  20001a60    00000080     (.common:xdc_runtime_SysMin_Module_State_0_outbuf__A)
                  20001ae0    00000050     (.common:task0Struct)
                  20001b30    00000048     (.common:i2cMSP432Objects)
                  20001b78    00000030     drivers_MSP432P401R.aem4f : GPIOMSP432.oem4f (.bss:gpioCallbackInfo)
                  20001ba8    00000008     (.common:Angulo_euler_acc)
                  20001bb0    00000008     (.common:parmbuf)
                  20001bb8    00000008     (.common:timeStep)
                  20001bc0    00000004     (.common:Gir_x_g)
                  20001bc4    00000004     (.common:Gir_y_g)
                  20001bc8    00000004     (.common:acc_x_g)
                  20001bcc    00000004     (.common:acc_y_g)
                  20001bd0    00000004     (.common:acc_z_g)
                  20001bd4    00000002     (.common:Acel_X_LH)
                  20001bd6    00000002     (.common:Acel_Y_LH)
                  20001bd8    00000002     (.common:Acel_Z_LH)
                  20001bda    00000002     (.common:Gir_x)
                  20001bdc    00000002     (.common:Gir_y)
                  20001bde    00000022     --HOLE--
                  20001c00    00000030     (.common:ti_uia_loggers_LoggerStopMode_Instance_State_0_hdr__A)
                  20001c30    00000050     --HOLE--
                  20001c80    00000030     (.common:ti_uia_loggers_LoggerStopMode_Instance_State_1_hdr__A)
                  20001cb0    00000050     --HOLE--
                  20001d00    00000030     (.common:ti_uia_loggers_LoggerStopMode_Instance_State_2_hdr__A)

.data      0    20001d30    000006c5     UNINITIALIZED
                  20001d30    0000009c     drivers_MSP432P401R.aem4f : PowerMSP432.oem4f (.data:PowerMSP432_perfLevels)
                  20001dcc    0000009c     i2ctmp006_pem4f.oem4f (.data:ti_uia_loggers_LoggerStopMode_Object__table__V)
                  20001e68    00000098     i2ctmp006_pem4f.oem4f (.data:ti_sysbios_utils_Load_Module__state__V)
                  20001f00    00000080     i2ctmp006_pem4f.oem4f (.data:ti_sysbios_knl_Swi_Module_State_0_readyQ__A)
                  20001f80    00000080     i2ctmp006_pem4f.oem4f (.data:ti_sysbios_knl_Task_Module_State_0_readyQ__A)
                  20002000    0000004c     i2ctmp006_pem4f.oem4f (.data:ti_sysbios_family_arm_msp432_Timer_Object__table__V)
                  2000204c    0000004c     i2ctmp006_pem4f.oem4f (.data:ti_sysbios_knl_Task_Object__table__V)
                  20002098    00000044     i2ctmp006_pem4f.oem4f (.data:ti_sysbios_knl_Task_Module__state__V)
                  200020dc    00000038     i2ctmp006_pem4f.oem4f (.data:ti_sysbios_gates_GateMutex_Object__table__V)
                  20002114    00000034     i2ctmp006_pem4f.oem4f (.data:ti_sysbios_family_arm_m3_Hwi_Module__state__V)
                  20002148    00000030     msp432p4xx_driverlib.lib : gpio.o (.data:GPIO_PORT_TO_BASE)
                  20002178    00000030     i2ctmp006_pem4f.oem4f (.data:ti_sysbios_family_arm_m3_Hwi_Object__table__V)
                  200021a8    00000030     i2ctmp006_pem4f.oem4f (.data:ti_sysbios_family_arm_m3_Timer_Object__table__V)
                  200021d8    00000030     i2ctmp006_pem4f.oem4f (.data:ti_sysbios_knl_Swi_Object__table__V)
                  20002208    0000002c     i2ctmp006_pem4f.oem4f (.data:ti_sysbios_knl_Clock_Module__state__V)
                  20002234    00000028     drivers_MSP432P401R.aem4f : PowerMSP432.oem4f (.data:PowerMSP432_module)
                  2000225c    00000024     i2ctmp006_pem4f.oem4f (.data:ti_sysbios_BIOS_Module__state__V)
                  20002280    00000020     i2ctmp006_pem4f.oem4f (.data:ti_sysbios_family_arm_msp432_Timer_Module_State_0_device__A)
                  200022a0    0000001c     i2ctmp006_pem4f.oem4f (.data:ti_sysbios_knl_Swi_Module__state__V)
                  200022bc    00000004     drivers_MSP432P401R.aem4f : I2C.oem4f (.data)
                  200022c0    00000018     i2ctmp006.obj (.data)
                  200022d8    00000018     i2ctmp006_pem4f.oem4f (.data:ti_sysbios_heaps_HeapMem_Object__table__V)
                  200022f0    00000010     MSP_EXP432P401R.obj (.data:gpioPinConfigs)
                  20002300    00000010     i2ctmp006_pem4f.oem4f (.data:ti_sysbios_family_arm_msp432_Timer_Module_State_0_handles__A)
                  20002310    0000000c     i2ctmp006_pem4f.oem4f (.data:ti_sysbios_family_arm_m3_Timer_Module__state__V)
                  2000231c    0000000c     i2ctmp006_pem4f.oem4f (.data:ti_sysbios_family_arm_msp432_ClockFreqs_Module__state__V)
                  20002328    0000000c     i2ctmp006_pem4f.oem4f (.data:ti_sysbios_family_arm_msp432_Timer_Module__state__V)
                  20002334    0000000c     i2ctmp006_pem4f.oem4f (.data:ti_sysbios_knl_Task_Module__root__V)
                  20002340    0000000c     i2ctmp006_pem4f.oem4f (.data:ti_uia_runtime_QueueDescriptor_Module__state__V)
                  2000234c    0000000c     i2ctmp006_pem4f.oem4f (.data:xdc_runtime_SysMin_Module__state__V)
                  20002358    00000008     rtsv7M4_T_le_v4SPD16_eabi.lib : _lock.c.obj (.data:$O1$$)
                  20002360    00000008     MSP_EXP432P401R.obj (.data:gpioCallbackFunctions)
                  20002368    00000008     ti.uia.runtime.aem4f : QueueDescriptor.oem4f (.data)
                  20002370    00000008     i2ctmp006_pem4f.oem4f (.data:ti_sysbios_family_arm_m3_Hwi_Module__root__V)
                  20002378    00000008     i2ctmp006_pem4f.oem4f (.data:ti_sysbios_gates_GateHwi_Module__root__V)
                  20002380    00000008     i2ctmp006_pem4f.oem4f (.data:ti_sysbios_gates_GateMutex_Module__root__V)
                  20002388    00000008     i2ctmp006_pem4f.oem4f (.data:ti_sysbios_heaps_HeapMem_Module__root__V)
                  20002390    00000008     i2ctmp006_pem4f.oem4f (.data:ti_sysbios_knl_Queue_Module__root__V)
                  20002398    00000008     i2ctmp006_pem4f.oem4f (.data:ti_sysbios_knl_Semaphore_Module__root__V)
                  200023a0    00000008     i2ctmp006_pem4f.oem4f (.data:ti_uia_loggers_LoggerStopMode_Module__root__V)
                  200023a8    00000008     i2ctmp006_pem4f.oem4f (.data:xdc_runtime_Registry_Module__state__V)
                  200023b0    00000008     i2ctmp006_pem4f.oem4f (.data:xdc_runtime_Startup_Module__state__V)
                  200023b8    00000008     i2ctmp006_pem4f.oem4f (.data:xdc_runtime_System_Module_State_0_atexitHandlers__A)
                  200023c0    00000008     i2ctmp006_pem4f.oem4f (.data:xdc_runtime_System_Module__state__V)
                  200023c8    00000004     rtsv7M4_T_le_v4SPD16_eabi.lib : errno.c.obj (.data)
                  200023cc    00000004                                   : stkdepth_vars.c.obj (.data)
                  200023d0    00000004     i2ctmp006_pem4f.oem4f (.data:ti_sysbios_family_arm_m3_Hwi_Module_State_0_excContext__A)
                  200023d4    00000004     i2ctmp006_pem4f.oem4f (.data:ti_sysbios_family_arm_m3_Hwi_Module_State_0_excStack__A)
                  200023d8    00000004     i2ctmp006_pem4f.oem4f (.data:ti_sysbios_family_arm_m3_TimestampProvider_Module__state__V)
                  200023dc    00000004     i2ctmp006_pem4f.oem4f (.data:ti_sysbios_gates_GateHwi_Object__table__V)
                  200023e0    00000004     i2ctmp006_pem4f.oem4f (.data:ti_sysbios_knl_Task_Module_State_0_idleTask__A)
                  200023e4    00000004     i2ctmp006_pem4f.oem4f (.data:ti_sysbios_utils_Load_Module_State_0_runningTask__A)
                  200023e8    00000004     i2ctmp006_pem4f.oem4f (.data:ti_sysbios_utils_Load_Module_State_0_taskStartTime__A)
                  200023ec    00000004     i2ctmp006_pem4f.oem4f (.data:xdc_runtime_Memory_Module__state__V)
                  200023f0    00000002     i2ctmp006_pem4f.oem4f (.data:ti_sysbios_family_arm_m3_Hwi_Module_State_0_excActive__A)
                  200023f2    00000002     i2ctmp006_pem4f.oem4f (.data:xdc_runtime_Error_Module__state__V)
                  200023f4    00000001     drivers_MSP432P401R.aem4f : GPIOMSP432.oem4f (.data)

.stack     0    2000fd00    00000300     UNINITIALIZED
                  2000fd00    00000300     --HOLE--

.bootVecs 
*          0    00000000    00000008     DSECT
                  00000000    00000008     boot.aem4f : boot.oem4f (.bootVecs)

.vecs      0    20000000    00000140     UNINITIALIZED
                  20000000    00000140     i2ctmp006_pem4f.oem4f (.vecs)

xdc.meta   0    00000000    000000fa     COPY SECTION
                  00000000    000000fa     i2ctmp006_pem4f.oem4f (xdc.meta)

.binit     0    00000000    00000000     

MODULE SUMMARY

       Module                       code    ro data   rw data
       ------                       ----    -------   -------
    .\
       i2ctmp006.obj                898     0         790    
       MSP_EXP432P401R.obj          34      76        96     
    +--+----------------------------+-------+---------+---------+
       Total:                       932     76        886    
                                                             
    C:\Users\Gerard\workspace_v8.2\i2ctmp006_MSP_EXP432P401R_TI\Debug\configPkg\package\cfg\
       i2ctmp006_pem4f.oem4f        3332    9668      7444   
    +--+----------------------------+-------+---------+---------+
       Total:                       3332    9668      7444   
                                                             
    C:/ti/tirtos_msp43x_2_20_00_06/products/msp432_driverlib_3_21_00_05/driverlib/MSP432P4xx/ccs/msp432p4xx_driverlib.lib
       pcm.o                        1214    0         0      
       gpio.o                       456     0         48     
       i2c.o                        330     0         0      
       cs.o                         260     0         0      
       flash.o                      156     0         0      
       rtc_c.o                      72      0         0      
       wdt_a.o                      44      0         0      
       cpu.o                        28      0         0      
    +--+----------------------------+-------+---------+---------+
       Total:                       2560    0         48     
                                                             
    C:/ti/tirtos_msp43x_2_20_00_06/products/tidrivers_msp43x_2_20_00_08/packages/ti/drivers/lib/drivers_MSP432P401R.aem4f
       I2CMSP432.oem4f              1378    32        0      
       PowerMSP432.oem4f            1212    0         196    
       GPIOMSP432.oem4f             580     12        49     
       I2C.oem4f                    130     16        4      
       List.oem4f                   72      0         0      
    +--+----------------------------+-------+---------+---------+
       Total:                       3372    60        249    
                                                             
    C:/ti/tirtos_msp43x_2_20_00_06/products/tidrivers_msp43x_2_20_00_08/packages/ti/drivers/lib/power_tirtos_MSP432P401R.aem4f
       PowerMSP432_tirtos.oem4f     106     0         0      
    +--+----------------------------+-------+---------+---------+
       Total:                       106     0         0      
                                                             
    C:/ti/tirtos_msp43x_2_20_00_06/products/tidrivers_msp43x_2_20_00_08/packages/ti/drivers/ports/lib/tirtosport.aem4f
       SemaphoreP_tirtos.oem4f      146     0         0      
       HwiP_tirtos.oem4f            138     0         0      
    +--+----------------------------+-------+---------+---------+
       Total:                       284     0         0      
                                                             
    C:\Users\Gerard\workspace_v8.2\i2ctmp006_MSP_EXP432P401R_TI\src\sysbios\sysbios.aem4f
       BIOS.obj                     9668    0         0      
       m3_Hwi_asm.obj               306     0         0      
       m3_TaskSupport_asm.obj       180     0         0      
       m3_Hwi_asm_switch.obj        118     0         0      
    +--+----------------------------+-------+---------+---------+
       Total:                       10272   0         0      
                                                             
    C:\ti\ccsv8\tools\compiler\ti-cgt-arm_18.1.3.LTS\lib\rtsv7M4_T_le_v4SPD16_eabi.lib
       e_pow.c.obj                  2496    48        0      
       s_atan.c.obj                 748     152       0      
       fd_add_t2.asm.obj            438     0         0      
       trgmsg.c.obj                 108     0         288    
       e_sqrt.c.obj                 344     0         0      
       fd_div_t2.asm.obj            310     0         0      
       s_scalbn.c.obj               272     0         0      
       fd_cmp_t2.asm.obj            268     0         0      
       fd_mul_t2.asm.obj            252     0         0      
       memcpy_t2.asm.obj            156     0         0      
       memset_t2.asm.obj            122     0         0      
       fd_tos_t2.asm.obj            110     0         0      
       copy_decompress_lzss.c.obj   104     0         0      
       hostwrite.c.obj              88      0         0      
       cpy_tbl.c.obj                76      0         0      
       u_divt2.asm.obj              64      0         0      
       fs_tod_t2.asm.obj            56      0         0      
       i_tofd_t2.asm.obj            46      0         0      
       _lock.c.obj                  26      0         8      
       u_tofd_t2.asm.obj            32      0         0      
       args_main.c.obj              24      0         0      
       s_copysign.c.obj             20      0         0      
       strlen.c.obj                 20      0         0      
       copy_decompress_none.c.obj   14      0         0      
       copy_zero_init.c.obj         12      0         0      
       errno.c.obj                  8       0         4      
       hostopen.c.obj               0       0         8      
       exit.c.obj                   4       0         0      
       stkdepth_vars.c.obj          0       0         4      
       div0.asm.obj                 2       0         0      
    +--+----------------------------+-------+---------+---------+
       Total:                       6220    200       312    
                                                             
    C:\ti\tirtos_msp43x_2_20_00_06\products\bios_6_46_00_23\packages\ti\targets\arm\rtsarm\lib\auto_init.aem4f
       auto_init.oem4f              160     0         0      
    +--+----------------------------+-------+---------+---------+
       Total:                       160     0         0      
                                                             
    C:\ti\tirtos_msp43x_2_20_00_06\products\bios_6_46_00_23\packages\ti\targets\arm\rtsarm\lib\boot.aem4f
       boot.oem4f                   88      0         0      
    +--+----------------------------+-------+---------+---------+
       Total:                       88      0         0      
                                                             
    C:\ti\tirtos_msp43x_2_20_00_06\products\bios_6_46_00_23\packages\ti\targets\arm\rtsarm\lib\ti.targets.arm.rtsarm.aem4f
       System.oem4f                 1255    0         0      
       Text.oem4f                   672     0         0      
       Error.oem4f                  524     0         0      
       Core-mem.oem4f               358     0         0      
       Startup.oem4f                340     0         0      
       SysMin.oem4f                 248     0         0      
       Core-smem.oem4f              204     0         0      
       Memory.oem4f                 176     0         0      
       Assert.oem4f                 84      0         0      
       Core-params.oem4f            70      0         0      
       Core-label.oem4f             52      0         0      
       Registry.oem4f               32      0         0      
       Gate.oem4f                   28      0         0      
    +--+----------------------------+-------+---------+---------+
       Total:                       4043    0         0      
                                                             
    C:\ti\tirtos_msp43x_2_20_00_06\products\uia_2_00_06_52\packages\ti\uia\loggers\lib\release\ti.uia.loggers.aem4f
       LoggerStopMode.oem4f         552     0         0      
    +--+----------------------------+-------+---------+---------+
       Total:                       552     0         0      
                                                             
    C:\ti\tirtos_msp43x_2_20_00_06\products\uia_2_00_06_52\packages\ti\uia\runtime\lib\release\ti.uia.runtime.aem4f
       QueueDescriptor.oem4f        116     0         8      
    +--+----------------------------+-------+---------+---------+
       Total:                       116     0         8      
                                                             
       Stack:                       0       0         768    
       Linker Generated:            0       735       0      
    +--+----------------------------+-------+---------+---------+
       Grand Total:                 32037   10739     9715   


LINKER GENERATED COPY TABLES

__TI_cinit_table @ 0000a7d0 records: 3, size/record: 8, table size: 24
	.data: load addr=0000a508, load size=000002ab bytes, run addr=20001d30, run size=000006c5 bytes, compression=lzss
	.bss: load addr=0000a7c0, load size=00000008 bytes, run addr=20000180, run size=00001bb0 bytes, compression=zero_init
	.vecs: load addr=0000a7c8, load size=00000008 bytes, run addr=20000000, run size=00000140 bytes, compression=zero_init


LINKER GENERATED HANDLER TABLE

__TI_handler_table @ 0000a7b4 records: 3, size/record: 4, table size: 12
	index: 0, handler: __TI_decompress_lzss
	index: 1, handler: __TI_decompress_none
	index: 2, handler: __TI_zero_init


GLOBAL SYMBOLS: SORTED ALPHABETICALLY BY Name 

address   name                                                         
-------   ----                                                         
20001bd4  Acel_X_LH                                                    
20001bd6  Acel_Y_LH                                                    
20001bd8  Acel_Z_LH                                                    
20001ba8  Angulo_euler_acc                                             
00003f4d  C$$EXIT                                                      
00006523  C$$IO$$                                                      
00007bdb  CPU_cpsid                                                    
00007be7  CPU_cpsie                                                    
00001ebd  CPU_wfi                                                      
00003815  CS_initClockSignal                                           
00006f55  CS_setDCOCenteredFrequency                                   
00007cc1  ClockP_getSystemTicks                                        
000061c1  FlashCtl_disableReadBuffering                                
00006649  FlashCtl_enableReadBuffering                                 
00006e3d  FlashCtl_setWaitState                                        
0000a314  GPIOMSP432_config                                            
000076c5  GPIO_clearInterruptFlag                                      
00006895  GPIO_getEnabledInterruptStatus                               
000079c5  GPIO_getInterruptStatus                                      
00005791  GPIO_hwiIntFxn                                               
000053a1  GPIO_init                                                    
00007245  GPIO_interruptEdgeSelect                                     
00006c59  GPIO_setAsInputPin                                           
000068c5  GPIO_setAsInputPinWithPullDownResistor                       
000068f5  GPIO_setAsInputPinWithPullUpResistor                         
00006f79  GPIO_setAsOutputPin                                          
00005da1  GPIO_setAsPeripheralModuleFunctionInputPin                   
000057e5  GPIO_setCallback                                             
00002441  GPIO_setConfig                                               
000078b5  GPIO_setDriveStrengthHigh                                    
000076dd  GPIO_setDriveStrengthLow                                     
000078c9  GPIO_setOutputHighOnPin                                      
000076f5  GPIO_setOutputLowOnPin                                       
20001bda  Gir_x                                                        
20001bc0  Gir_x_g                                                      
20001bdc  Gir_y                                                        
20001bc4  Gir_y_g                                                      
000055d9  HOSTwrite                                                    
00007b59  HwiP_Params_init                                             
0000527d  HwiP_create                                                  
00007819  HwiP_delete                                                  
00002035  HwiP_disable                                                 
00007dd1  HwiP_restore                                                 
00004505  I2CMSP432_cancel                                             
00005015  I2CMSP432_close                                              
000063fb  I2CMSP432_control                                            
0000a17c  I2CMSP432_fxnTable                                           
00002927  I2CMSP432_hwiIntFxn                                          
00007d2d  I2CMSP432_init                                               
00001d45  I2CMSP432_open                                               
00004629  I2CMSP432_transfer                                           
000079d5  I2C_Params_init                                              
00007b67  I2C_clearInterruptFlag                                       
0000a29c  I2C_config                                                   
0000a338  I2C_defaultParams                                            
00007b75  I2C_disableInterrupt                                         
00007bf3  I2C_disableModule                                            
00007d5f  I2C_enableInterrupt                                          
00007bff  I2C_enableModule                                             
00007db1  I2C_getEnabledInterruptStatus                                
00007db7  I2C_getInterruptStatus                                       
000064bd  I2C_init                                                     
00006381  I2C_initMaster                                               
0000770d  I2C_masterIsStartSent                                        
00007dbd  I2C_masterReceiveMultiByteNext                               
000079e5  I2C_masterReceiveMultiByteStop                               
000079f5  I2C_masterReceiveStart                                       
00006201  I2C_masterSendMultiByteFinish                                
00006f9d  I2C_masterSendMultiByteNext                                  
00007a05  I2C_masterSendStart                                          
00006925  I2C_open                                                     
00007b83  I2C_setMode                                                  
000022f5  I2C_setSlaveAddress                                          
00007d37  I2C_transfer                                                 
00003b7d  List_head                                                    
00003dd5  List_next                                                    
00006ee1  List_put                                                     
000075c1  List_remove                                                  
00007d67  MSP_EXP432P401R_initGPIO                                     
00007d6f  MSP_EXP432P401R_initGeneral                                  
0000797d  MSP_EXP432P401R_initI2C                                      
00007449  PCM_enableRudeMode                                           
00006c85  PCM_getCoreVoltageLevel                                      
00006de9  PCM_getPowerMode                                             
00007c0d  PCM_getPowerState                                            
00006e65  PCM_gotoLPM0                                                 
000049e1  PCM_gotoLPM3                                                 
00007a15  PCM_gotoLPM4                                                 
00007d77  PCM_setPowerMode                                             
00007d7f  PCM_setPowerState                                            
00005a3d  PCM_shutdownDevice                                           
0000a328  PowerMSP432_config                                           
00007265  PowerMSP432_getFreqs                                         
00003e95  PowerMSP432_getNumPerfLevels                                 
00001d43  PowerMSP432_initPolicy                                       
20002234  PowerMSP432_module                                           
20001d30  PowerMSP432_perfLevels                                       
000063bf  PowerMSP432_sleepPolicy                                      
00006cb1  PowerMSP432_updateFreqs                                      
00007c19  Power_getConstraintMask                                      
00007c25  Power_getPerformanceLevel                                    
000078dd  Power_idleFunc                                               
00005f99  Power_init                                                   
00007465  Power_registerNotify                                         
00006cdd  Power_releaseConstraint                                      
00006d09  Power_setConstraint                                          
00001789  Power_sleep                                                  
00007285  Power_unregisterNotify                                       
00006fc1  RTC_C_holdClock                                              
00006fe5  RTC_C_startClock                                             
UNDEFED   SHT$$INIT_ARRAY$$Base                                        
UNDEFED   SHT$$INIT_ARRAY$$Limit                                       
00007d87  SemaphoreP_Params_init                                       
00005631  SemaphoreP_create                                            
0000782f  SemaphoreP_delete                                            
0000798f  SemaphoreP_pend                                              
00007d41  SemaphoreP_post                                              
00007d41  SemaphoreP_postFromClock                                     
00007d41  SemaphoreP_postFromISR                                       
4000480c  WDTCTL_SYM                                                   
00007725  WDT_A_holdTimer                                              
000078f1  WDT_A_startTimer                                             
00000000  __ASM__                                                      
20001940  __CIOBUF_                                                    
00000076  __ISA__                                                      
00000089  __PLAT__                                                     
20010000  __STACK_END                                                  
00000300  __STACK_SIZE                                                 
000000ac  __TARG__                                                     
0000a7d0  __TI_CINIT_Base                                              
0000a7e8  __TI_CINIT_Limit                                             
0000a7b4  __TI_Handler_Table_Base                                      
0000a7c0  __TI_Handler_Table_Limit                                     
00004161  __TI_auto_init                                               
00004f45  __TI_decompress_lzss                                         
00007b91  __TI_decompress_none                                         
ffffffff  __TI_pprof_out_hndl                                          
ffffffff  __TI_prof_data_size                                          
ffffffff  __TI_prof_data_start                                         
0000667d  __TI_readmsg                                                 
0000a508  __TI_static_base__                                           
000064f5  __TI_writemsg                                                
00007c49  __TI_zero_init                                               
000000d2  __TRDR__                                                     
000047cd  __aeabi_cdcmpeq                                              
000047cd  __aeabi_cdcmple                                              
00004853  __aeabi_cdrcmple                                             
00004d21  __aeabi_d2f                                                  
000019f7  __aeabi_dadd                                                 
000027f1  __aeabi_ddiv                                                 
00003089  __aeabi_dmul                                                 
000019ed  __aeabi_dsub                                                 
00007d91  __aeabi_errno_addr                                           
00006565  __aeabi_f2d                                                  
00006c29  __aeabi_i2d                                                  
000043d7  __aeabi_idiv0                                                
000043d7  __aeabi_ldiv0                                                
00004add  __aeabi_memclr                                               
00004add  __aeabi_memclr4                                              
00004add  __aeabi_memclr8                                              
000042a1  __aeabi_memcpy                                               
000042a1  __aeabi_memcpy4                                              
000042a1  __aeabi_memcpy8                                              
00004adf  __aeabi_memset                                               
00004adf  __aeabi_memset4                                              
00004adf  __aeabi_memset8                                              
000072a5  __aeabi_ui2d                                                 
00006281  __aeabi_uidiv                                                
00006281  __aeabi_uidivmod                                             
ffffffff  __binit__                                                    
ffffffff  __c_args__                                                   
2000fd00  __stack                                                      
0000773d  _args_main                                                   
00005689  _c_int00                                                     
20002358  _lock                                                        
00002a3f  _nop                                                         
00007c31  _register_lock                                               
00007c3d  _register_unlock                                             
2000235c  _unlock                                                      
00003f4d  abort                                                        
20001bc8  acc_x_g                                                      
20001bcc  acc_y_g                                                      
20001bd0  acc_z_g                                                      
0000149d  atan                                                         
0000149d  atanl                                                        
ffffffff  binit                                                        
00005b81  copy_in                                                      
00007905  copysign                                                     
00007905  copysignl                                                    
200023c8  errno                                                        
20002360  gpioCallbackFunctions                                        
200022f0  gpioPinConfigs                                               
0000a348  i2cMSP432HWAttrs                                             
20001b30  i2cMSP432Objects                                             
00002b59  ldexp                                                        
00002b59  ldexpl                                                       
0000117d  leer_imu                                                     
00005bcd  main                                                         
200023cc  main_func_sp                                                 
000042a1  memcpy                                                       
00004ae5  memset                                                       
00007ad9  osi_TaskDisable                                              
00007a69  osi_start                                                    
20001bb0  parmbuf                                                      
00000041  pow                                                          
00000041  powl                                                         
200022c0  rad_to_deg                                                   
200022c8  sample                                                       
00002b59  scalbn                                                       
00002b59  scalbnl                                                      
0000219d  sqrt                                                         
0000219d  sqrtl                                                        
00007919  strlen                                                       
20001180  task0Stack                                                   
20001ae0  task0Struct                                                  
2000225c  ti_sysbios_BIOS_Module__state__V                             
0000760f  ti_sysbios_BIOS_RtsGateProxy_Handle__label__S                
0000713d  ti_sysbios_BIOS_RtsGateProxy_Object__delete__S               
000040b5  ti_sysbios_BIOS_RtsGateProxy_enter__E                        
0000446d  ti_sysbios_BIOS_RtsGateProxy_leave__E                        
00007e01  ti_sysbios_BIOS_RtsGateProxy_query__E                        
00006955  ti_sysbios_BIOS_atExitFunc__I                                
00007009  ti_sysbios_BIOS_errorRaiseHook__I                            
00007845  ti_sysbios_BIOS_exitFunc__I                                  
00007a29  ti_sysbios_BIOS_exit__E                                      
00007a39  ti_sysbios_BIOS_getCpuFreq__E                                
00007e11  ti_sysbios_BIOS_linkedWithIncorrectBootLibrary__E            
00004597  ti_sysbios_BIOS_nullFunc__I                                  
0000702d  ti_sysbios_BIOS_registerRTSLock__I                           
00007051  ti_sysbios_BIOS_removeRTSLock__I                             
000072c5  ti_sysbios_BIOS_rtsLock__I                                   
00007755  ti_sysbios_BIOS_rtsUnlock__I                                 
00007a49  ti_sysbios_BIOS_setCpuFreq__E                                
00007a59  ti_sysbios_BIOS_setThreadType__E                             
000066b1  ti_sysbios_BIOS_startFunc__I                                 
00007a69  ti_sysbios_BIOS_start__E                                     
00009e8c  ti_sysbios_family_arm_m3_Hwi_E_NMI__C                        
0000a00c  ti_sysbios_family_arm_m3_Hwi_E_alreadyDefined__C             
0000a39c  ti_sysbios_family_arm_m3_Hwi_E_busFault__C                   
0000a3a0  ti_sysbios_family_arm_m3_Hwi_E_debugMon__C                   
0000a3a4  ti_sysbios_family_arm_m3_Hwi_E_hardFault__C                  
0000a3a8  ti_sysbios_family_arm_m3_Hwi_E_memFault__C                   
0000a3ac  ti_sysbios_family_arm_m3_Hwi_E_noIsr__C                      
0000a3b0  ti_sysbios_family_arm_m3_Hwi_E_reserved__C                   
0000a3b4  ti_sysbios_family_arm_m3_Hwi_E_svCall__C                     
0000a3b8  ti_sysbios_family_arm_m3_Hwi_E_usageFault__C                 
000075db  ti_sysbios_family_arm_m3_Hwi_Handle__label__S                
000066e9  ti_sysbios_family_arm_m3_Hwi_Instance_finalize__E            
000043d9  ti_sysbios_family_arm_m3_Hwi_Instance_init__E                
200023f0  ti_sysbios_family_arm_m3_Hwi_Module_State_0_excActive__A     
200023d0  ti_sysbios_family_arm_m3_Hwi_Module_State_0_excContext__A    
200023d4  ti_sysbios_family_arm_m3_Hwi_Module_State_0_excStack__A      
00009e8a  ti_sysbios_family_arm_m3_Hwi_Module__id__C                   
20002370  ti_sysbios_family_arm_m3_Hwi_Module__root__V                 
0000776d  ti_sysbios_family_arm_m3_Hwi_Module__startupDone__F          
0000776d  ti_sysbios_family_arm_m3_Hwi_Module__startupDone__S          
20002114  ti_sysbios_family_arm_m3_Hwi_Module__state__V                
00005a91  ti_sysbios_family_arm_m3_Hwi_Module_startup__E               
0000a3bc  ti_sysbios_family_arm_m3_Hwi_NUM_INTERRUPTS__C               
0000a19c  ti_sysbios_family_arm_m3_Hwi_Object__DESC__C                 
0000a040  ti_sysbios_family_arm_m3_Hwi_Object__PARAMS__C               
0000a3c0  ti_sysbios_family_arm_m3_Hwi_Object__count__C                
00007481  ti_sysbios_family_arm_m3_Hwi_Object__destruct__S             
0000792d  ti_sysbios_family_arm_m3_Hwi_Object__get__S                  
20002178  ti_sysbios_family_arm_m3_Hwi_Object__table__V                
00007c55  ti_sysbios_family_arm_m3_Hwi_Params__init__S                 
0000a3c4  ti_sysbios_family_arm_m3_Hwi_ccr__C                          
000056e1  ti_sysbios_family_arm_m3_Hwi_construct                       
0000495d  ti_sysbios_family_arm_m3_Hwi_destruct                        
00007c61  ti_sysbios_family_arm_m3_Hwi_disableFxn__E                   
00005de9  ti_sysbios_family_arm_m3_Hwi_disableInterrupt__E             
00005149  ti_sysbios_family_arm_m3_Hwi_dispatchC__I                    
20001800  ti_sysbios_family_arm_m3_Hwi_dispatchTable                   
00003559  ti_sysbios_family_arm_m3_Hwi_dispatch__I                     
00007da1  ti_sysbios_family_arm_m3_Hwi_doSwiRestore__I                 
00007dc9  ti_sysbios_family_arm_m3_Hwi_doTaskRestore__I                
00005e31  ti_sysbios_family_arm_m3_Hwi_enableInterrupt__E              
00001ec1  ti_sysbios_family_arm_m3_Hwi_excBusFault__I                  
00003d19  ti_sysbios_family_arm_m3_Hwi_excDebugMon__I                  
00000a01  ti_sysbios_family_arm_m3_Hwi_excDumpRegs__I                  
00002c69  ti_sysbios_family_arm_m3_Hwi_excFillContext__I               
000072e5  ti_sysbios_family_arm_m3_Hwi_excHandlerAsm__I                
0000a3c8  ti_sysbios_family_arm_m3_Hwi_excHandlerFunc__C               
00002e81  ti_sysbios_family_arm_m3_Hwi_excHandlerMax__I                
00007309  ti_sysbios_family_arm_m3_Hwi_excHandler__I                   
00003dd9  ti_sysbios_family_arm_m3_Hwi_excHardFault__I                 
0000a37c  ti_sysbios_family_arm_m3_Hwi_excHookFuncs__A                 
0000a3cc  ti_sysbios_family_arm_m3_Hwi_excHookFuncs__C                 
000022f9  ti_sysbios_family_arm_m3_Hwi_excMemFault__I                  
00006721  ti_sysbios_family_arm_m3_Hwi_excNmi__I                       
000065a1  ti_sysbios_family_arm_m3_Hwi_excNoIsr__I                     
00005e79  ti_sysbios_family_arm_m3_Hwi_excReserved__I                  
00006401  ti_sysbios_family_arm_m3_Hwi_excSvCall__I                    
00002039  ti_sysbios_family_arm_m3_Hwi_excUsageFault__I                
00005fe1  ti_sysbios_family_arm_m3_Hwi_getStackInfo__E                 
00004471  ti_sysbios_family_arm_m3_Hwi_initNVIC__E                     
00005739  ti_sysbios_family_arm_m3_Hwi_initStacks__E                   
0000a3d0  ti_sysbios_family_arm_m3_Hwi_nullIsrFunc__C                  
e000e000  ti_sysbios_family_arm_m3_Hwi_nvic                            
00006f07  ti_sysbios_family_arm_m3_Hwi_pendSV__I                       
000048d9  ti_sysbios_family_arm_m3_Hwi_postInit__I                     
0000a3d4  ti_sysbios_family_arm_m3_Hwi_priGroup__C                     
20000000  ti_sysbios_family_arm_m3_Hwi_ramVectors                      
00000000  ti_sysbios_family_arm_m3_Hwi_resetVectors                    
00007dd1  ti_sysbios_family_arm_m3_Hwi_restoreFxn__E                   
00006f2b  ti_sysbios_family_arm_m3_Hwi_return                          
00007da9  ti_sysbios_family_arm_m3_Hwi_startup__E                      
00007941  ti_sysbios_family_arm_m3_Hwi_switchFromBootStack__E          
00004a5d  ti_sysbios_family_arm_m3_TaskSupport_Module__startupDone__S  
000046b5  ti_sysbios_family_arm_m3_TaskSupport_buildTaskStack          
00007c71  ti_sysbios_family_arm_m3_TaskSupport_checkStack__E           
00007c81  ti_sysbios_family_arm_m3_TaskSupport_getStackAlignment__E    
00007a79  ti_sysbios_family_arm_m3_TaskSupport_glue                    
0000a3d8  ti_sysbios_family_arm_m3_TaskSupport_stackAlignment__C       
00006989  ti_sysbios_family_arm_m3_TaskSupport_start__E                
00007785  ti_sysbios_family_arm_m3_TaskSupport_swap__E                 
0000a3dc  ti_sysbios_family_arm_m3_Timer_E_cannotSupport__C            
0000a312  ti_sysbios_family_arm_m3_Timer_Module__id__C                 
20002310  ti_sysbios_family_arm_m3_Timer_Module__state__V              
00007079  ti_sysbios_family_arm_m3_Timer_Module_startup__E             
200021a8  ti_sysbios_family_arm_m3_Timer_Object__table__V              
00005ec1  ti_sysbios_family_arm_m3_Timer_initDevice__I                 
00006759  ti_sysbios_family_arm_m3_Timer_periodicStub__I               
000070a1  ti_sysbios_family_arm_m3_Timer_postInit__I                   
00005f09  ti_sysbios_family_arm_m3_Timer_setPeriod__E                  
00005891  ti_sysbios_family_arm_m3_Timer_start__E                      
0000a3e0  ti_sysbios_family_arm_m3_Timer_startupNeeded__C              
000070c9  ti_sysbios_family_arm_m3_Timer_startup__E                    
000074a1  ti_sysbios_family_arm_m3_Timer_stop__E                       
200023d8  ti_sysbios_family_arm_m3_TimestampProvider_Module__state__V  
00007329  ti_sysbios_family_arm_m3_TimestampProvider_Module_startup__E 
0000a4e8  ti_sysbios_family_arm_m3_TimestampProvider_configTimer__C    
000052e1  ti_sysbios_family_arm_m3_TimestampProvider_get32__E          
00004bd1  ti_sysbios_family_arm_m3_TimestampProvider_get64__E          
00007a39  ti_sysbios_family_arm_m3_TimestampProvider_getFreq__E        
00007e19  ti_sysbios_family_arm_m3_TimestampProvider_rolloverFunc__E   
00007c91  ti_sysbios_family_arm_m3_TimestampProvider_startTimer__E     
2000231c  ti_sysbios_family_arm_msp432_ClockFreqs_Module__state__V     
000070f1  ti_sysbios_family_arm_msp432_ClockFreqs_setFrequency__E      
20002280  ti_sysbios_family_arm_msp432_Timer_Module_State_0_device__A  
20002300  ti_sysbios_family_arm_msp432_Timer_Module_State_0_handles__A 
0000779d  ti_sysbios_family_arm_msp432_Timer_Module__startupDone__F    
0000779d  ti_sysbios_family_arm_msp432_Timer_Module__startupDone__S    
20002328  ti_sysbios_family_arm_msp432_Timer_Module__state__V          
000062c1  ti_sysbios_family_arm_msp432_Timer_Module_startup__E         
20002000  ti_sysbios_family_arm_msp432_Timer_Object__table__V          
00007ca1  ti_sysbios_family_arm_msp432_Timer_getMaxTicks__E            
000058e9  ti_sysbios_family_arm_msp432_Timer_initDevice__I             
0000a3e4  ti_sysbios_family_arm_msp432_Timer_numTimerDevices__C        
000040b9  ti_sysbios_family_arm_msp432_Timer_periodicStub__E           
00007119  ti_sysbios_family_arm_msp432_Timer_postInit__I               
000069b9  ti_sysbios_family_arm_msp432_Timer_setPeriod__E              
00005c19  ti_sysbios_family_arm_msp432_Timer_start__E                  
0000a3e8  ti_sysbios_family_arm_msp432_Timer_startupNeeded__C          
00006301  ti_sysbios_family_arm_msp432_Timer_startup__E                
00005941  ti_sysbios_family_arm_msp432_init_Boot_configureClocksHigh   
00007a89  ti_sysbios_family_arm_msp432_init_Boot_disableWatchdog       
00007bcf  ti_sysbios_family_arm_msp432_init_Boot_init__I               
00007429  ti_sysbios_family_xxx_Hwi_switchAndRunFunc                   
000075f5  ti_sysbios_gates_GateHwi_Handle__label__S                    
00007e21  ti_sysbios_gates_GateHwi_Instance_init__E                    
0000a0ec  ti_sysbios_gates_GateHwi_Module__FXNS__C                     
20002378  ti_sysbios_gates_GateHwi_Module__root__V                     
0000a1bc  ti_sysbios_gates_GateHwi_Object__DESC__C                     
0000a2b4  ti_sysbios_gates_GateHwi_Object__PARAMS__C                   
000069e9  ti_sysbios_gates_GateHwi_Object__create__S                   
00007349  ti_sysbios_gates_GateHwi_Object__delete__S                   
200023dc  ti_sysbios_gates_GateHwi_Object__table__V                    
00007cb1  ti_sysbios_gates_GateHwi_enter__E                            
00007dd9  ti_sysbios_gates_GateHwi_leave__E                            
00007df9  ti_sysbios_gates_GateHwi_query__E                            
0000760f  ti_sysbios_gates_GateMutex_Handle__label__S                  
0000a3ec  ti_sysbios_gates_GateMutex_Instance_State_sem__O             
00007a99  ti_sysbios_gates_GateMutex_Instance_finalize__E              
000074c1  ti_sysbios_gates_GateMutex_Instance_init__E                  
0000a110  ti_sysbios_gates_GateMutex_Module__FXNS__C                   
20002380  ti_sysbios_gates_GateMutex_Module__root__V                   
0000a1dc  ti_sysbios_gates_GateMutex_Object__DESC__C                   
0000a2cc  ti_sysbios_gates_GateMutex_Object__PARAMS__C                 
00006a19  ti_sysbios_gates_GateMutex_Object__create__S                 
0000713d  ti_sysbios_gates_GateMutex_Object__delete__S                 
200020dc  ti_sysbios_gates_GateMutex_Object__table__V                  
00006a49  ti_sysbios_gates_GateMutex_enter__E                          
000077b9  ti_sysbios_gates_GateMutex_leave__E                          
00007e01  ti_sysbios_gates_GateMutex_query__E                          
0000a3f0  ti_sysbios_hal_Hwi_E_stackOverflow__C                        
000075db  ti_sysbios_hal_Hwi_HwiProxy_Handle__label__S                 
0000776d  ti_sysbios_hal_Hwi_HwiProxy_Module__startupDone__S           
00007c55  ti_sysbios_hal_Hwi_HwiProxy_Params__init__S                  
00005de9  ti_sysbios_hal_Hwi_HwiProxy_disableInterrupt__E              
00007c61  ti_sysbios_hal_Hwi_HwiProxy_disable__E                       
00005e31  ti_sysbios_hal_Hwi_HwiProxy_enableInterrupt__E               
00005fe1  ti_sysbios_hal_Hwi_HwiProxy_getStackInfo__E                  
00007dd1  ti_sysbios_hal_Hwi_HwiProxy_restore__E                       
00007da9  ti_sysbios_hal_Hwi_HwiProxy_startup__E                       
00007941  ti_sysbios_hal_Hwi_HwiProxy_switchFromBootStack__E           
0000a4ea  ti_sysbios_hal_Hwi_Module__id__C                             
000079a1  ti_sysbios_hal_Hwi_Module_startup__E                         
00006791  ti_sysbios_hal_Hwi_checkStack                                
00005de9  ti_sysbios_hal_Hwi_disableInterrupt__E                       
00005e31  ti_sysbios_hal_Hwi_enableInterrupt__E                        
00005fe1  ti_sysbios_hal_Hwi_getStackInfo__E                           
00006861  ti_sysbios_hal_Hwi_initStack                                 
00007da9  ti_sysbios_hal_Hwi_startup__E                                
00007941  ti_sysbios_hal_Hwi_switchFromBootStack__E                    
0000a3f4  ti_sysbios_heaps_HeapMem_E_memory__C                         
00007629  ti_sysbios_heaps_HeapMem_Handle__label__S                    
20000180  ti_sysbios_heaps_HeapMem_Instance_State_0_buf__A             
00006341  ti_sysbios_heaps_HeapMem_Instance_init__E                    
0000760f  ti_sysbios_heaps_HeapMem_Module_GateProxy_Handle__label__S   
0000713d  ti_sysbios_heaps_HeapMem_Module_GateProxy_Object__delete__S  
00004bcd  ti_sysbios_heaps_HeapMem_Module_GateProxy_enter__E           
000051ad  ti_sysbios_heaps_HeapMem_Module_GateProxy_leave__E           
00007e01  ti_sysbios_heaps_HeapMem_Module_GateProxy_query__E           
0000a09c  ti_sysbios_heaps_HeapMem_Module__FXNS__C                     
0000a3f8  ti_sysbios_heaps_HeapMem_Module__gateObj__C                  
0000a4ec  ti_sysbios_heaps_HeapMem_Module__id__C                       
20002388  ti_sysbios_heaps_HeapMem_Module__root__V                     
0000a1fc  ti_sysbios_heaps_HeapMem_Object__DESC__C                     
0000a134  ti_sysbios_heaps_HeapMem_Object__PARAMS__C                   
0000a3fc  ti_sysbios_heaps_HeapMem_Object__count__C                    
00006a79  ti_sysbios_heaps_HeapMem_Object__create__S                   
00007369  ti_sysbios_heaps_HeapMem_Object__delete__S                   
00007955  ti_sysbios_heaps_HeapMem_Object__get__S                      
200022d8  ti_sysbios_heaps_HeapMem_Object__table__V                    
00003aa9  ti_sysbios_heaps_HeapMem_alloc__E                            
00004a61  ti_sysbios_heaps_HeapMem_free__E                             
00005c69  ti_sysbios_heaps_HeapMem_getStats__E                         
00006441  ti_sysbios_heaps_HeapMem_init__I                             
00007de1  ti_sysbios_heaps_HeapMem_isBlocking__E                       
0000a400  ti_sysbios_heaps_HeapMem_reqAlign__C                         
0000a404  ti_sysbios_knl_Clock_Module_State_clockQ__O                  
20002208  ti_sysbios_knl_Clock_Module__state__V                        
00007161  ti_sysbios_knl_Clock_Module_startup__E                       
0000779d  ti_sysbios_knl_Clock_TimerProxy_Module__startupDone__S       
00005215  ti_sysbios_knl_Clock_TimerProxy_getMaxTicks__E               
00006301  ti_sysbios_knl_Clock_TimerProxy_startup__E                   
00006e91  ti_sysbios_knl_Clock_addI__E                                 
00006d35  ti_sysbios_knl_Clock_doTick__I                               
00007cc1  ti_sysbios_knl_Clock_getTicks__E                             
00007e29  ti_sysbios_knl_Clock_logTick__E                              
00007ba1  ti_sysbios_knl_Clock_removeI__E                              
00004c41  ti_sysbios_knl_Clock_workFunc__E                             
0000a364  ti_sysbios_knl_Idle_funcList__A                              
0000a384  ti_sysbios_knl_Idle_funcList__C                              
00007bb1  ti_sysbios_knl_Idle_loop__E                                  
00007389  ti_sysbios_knl_Idle_run__E                                   
00007de9  ti_sysbios_knl_Queue_Instance_init__E                        
20002390  ti_sysbios_knl_Queue_Module__root__V                         
0000a21c  ti_sysbios_knl_Queue_Object__DESC__C                         
0000a2e4  ti_sysbios_knl_Queue_Object__PARAMS__C                       
000074dd  ti_sysbios_knl_Queue_Object__destruct__S                     
00007ccd  ti_sysbios_knl_Queue_Object__get__S                          
00006d61  ti_sysbios_knl_Queue_construct                               
000053fd  ti_sysbios_knl_Queue_destruct                                
00007bc1  ti_sysbios_knl_Queue_empty__E                                
000074f9  ti_sysbios_knl_Queue_put__E                                  
0000a408  ti_sysbios_knl_Semaphore_Instance_State_pendQ__O             
00007aa9  ti_sysbios_knl_Semaphore_Instance_finalize__E                
00007189  ti_sysbios_knl_Semaphore_Instance_init__E                    
20002398  ti_sysbios_knl_Semaphore_Module__root__V                     
0000a23c  ti_sysbios_knl_Semaphore_Object__DESC__C                     
0000a158  ti_sysbios_knl_Semaphore_Object__PARAMS__C                   
000073a9  ti_sysbios_knl_Semaphore_Object__destruct__S                 
00007cd9  ti_sysbios_knl_Semaphore_Params__init__S                     
00006aa9  ti_sysbios_knl_Semaphore_construct                           
0000545d  ti_sysbios_knl_Semaphore_destruct                            
00006ad9  ti_sysbios_knl_Semaphore_pendTimeout__I                      
00002581  ti_sysbios_knl_Semaphore_pend__E                             
000051b1  ti_sysbios_knl_Semaphore_post__E                             
00007643  ti_sysbios_knl_Swi_Handle__label__S                          
20001f00  ti_sysbios_knl_Swi_Module_State_0_readyQ__A                  
200022a0  ti_sysbios_knl_Swi_Module__state__V                          
00006eb9  ti_sysbios_knl_Swi_Module_startup__E                         
0000a40c  ti_sysbios_knl_Swi_Object__count__C                          
00007969  ti_sysbios_knl_Swi_Object__get__S                            
200021d8  ti_sysbios_knl_Swi_Object__table__V                          
00007ab9  ti_sysbios_knl_Swi_disable__E                                
00006029  ti_sysbios_knl_Swi_post__E                                   
00004e01  ti_sysbios_knl_Swi_restoreHwi__E                             
00006481  ti_sysbios_knl_Swi_restore__E                                
00005cb9  ti_sysbios_knl_Swi_runLoop__I                                
00005401  ti_sysbios_knl_Swi_run__I                                    
00005461  ti_sysbios_knl_Swi_schedule__I                               
00007df1  ti_sysbios_knl_Swi_startup__E                                
0000a410  ti_sysbios_knl_Task_E_spOutOfBounds__C                       
0000a414  ti_sysbios_knl_Task_E_stackOverflow__C                       
0000765d  ti_sysbios_knl_Task_Handle__label__S                         
20001400  ti_sysbios_knl_Task_Instance_State_0_stack__A                
00003e99  ti_sysbios_knl_Task_Instance_finalize__E                     
00003b81  ti_sysbios_knl_Task_Instance_init__E                         
200023e0  ti_sysbios_knl_Task_Module_State_0_idleTask__A               
20001f80  ti_sysbios_knl_Task_Module_State_0_readyQ__A                 
0000a418  ti_sysbios_knl_Task_Module_State_inactiveQ__O                
0000a4ee  ti_sysbios_knl_Task_Module__id__C                            
20002334  ti_sysbios_knl_Task_Module__root__V                          
20002098  ti_sysbios_knl_Task_Module__state__V                         
000054c1  ti_sysbios_knl_Task_Module_startup__E                        
0000a25c  ti_sysbios_knl_Task_Object__DESC__C                          
00009fd0  ti_sysbios_knl_Task_Object__PARAMS__C                        
0000a41c  ti_sysbios_knl_Task_Object__count__C                         
00007ac9  ti_sysbios_knl_Task_Object__get__S                           
2000204c  ti_sysbios_knl_Task_Object__table__V                         
00007ce5  ti_sysbios_knl_Task_Params__init__S                          
00004a5d  ti_sysbios_knl_Task_SupportProxy_Module__startupDone__S      
00007c71  ti_sysbios_knl_Task_SupportProxy_checkStack__E               
00007c81  ti_sysbios_knl_Task_SupportProxy_getStackAlignment__E        
00006989  ti_sysbios_knl_Task_SupportProxy_start__E                    
00007785  ti_sysbios_knl_Task_SupportProxy_swap__E                     
0000a420  ti_sysbios_knl_Task_allBlockedFunc__C                        
00005d09  ti_sysbios_knl_Task_allBlockedFunction__I                    
00003f51  ti_sysbios_knl_Task_checkStacks__E                           
00005995  ti_sysbios_knl_Task_construct                                
0000a424  ti_sysbios_knl_Task_defaultStackHeap__C                      
0000a428  ti_sysbios_knl_Task_defaultStackSize__C                      
00007ad9  ti_sysbios_knl_Task_disable__E                               
00007519  ti_sysbios_knl_Task_enter__I                                 
00004cb1  ti_sysbios_knl_Task_exit__E                                  
0000a42c  ti_sysbios_knl_Task_numConstructedTasks__C                   
00004741  ti_sysbios_knl_Task_postInit__I                              
00006b09  ti_sysbios_knl_Task_processVitalTaskFlag__I                  
000071b1  ti_sysbios_knl_Task_restoreHwi__E                            
00006d91  ti_sysbios_knl_Task_restore__E                               
00005341  ti_sysbios_knl_Task_schedule__I                              
00005521  ti_sysbios_knl_Task_startCore__E                             
00007e09  ti_sysbios_knl_Task_startup__E                               
00007791  ti_sysbios_knl_Task_swapReturn                               
00006b39  ti_sysbios_knl_Task_unblockI__E                              
00007871  ti_sysbios_knl_Task_unblock__E                               
200023e4  ti_sysbios_utils_Load_Module_State_0_runningTask__A          
200023e8  ti_sysbios_utils_Load_Module_State_0_taskStartTime__A        
20001e68  ti_sysbios_utils_Load_Module__state__V                       
00005219  ti_sysbios_utils_Load_idleFxn__E                             
0000a430  ti_sysbios_utils_Load_postUpdate__C                          
00006b69  ti_sysbios_utils_Load_updateCurrentThreadTime__E             
0000a4f0  ti_sysbios_utils_Load_updateInIdle__C                        
00004961  ti_sysbios_utils_Load_updateLoads__E                         
000071d9  ti_sysbios_utils_Load_updateThreadContexts__E                
00004961  ti_sysbios_utils_Load_update__E                              
0000a434  ti_sysbios_utils_Load_windowInMs__C                          
00007677  ti_uia_loggers_LoggerStopMode_Handle__label__S               
20001c00  ti_uia_loggers_LoggerStopMode_Instance_State_0_hdr__A        
20001600  ti_uia_loggers_LoggerStopMode_Instance_State_0_packetArray__A
20001c80  ti_uia_loggers_LoggerStopMode_Instance_State_1_hdr__A        
20000980  ti_uia_loggers_LoggerStopMode_Instance_State_1_packetArray__A
20001d00  ti_uia_loggers_LoggerStopMode_Instance_State_2_hdr__A        
20000d80  ti_uia_loggers_LoggerStopMode_Instance_State_2_packetArray__A
00007535  ti_uia_loggers_LoggerStopMode_Instance_init__E               
00009f28  ti_uia_loggers_LoggerStopMode_Module__FXNS__C                
0000a438  ti_uia_loggers_LoggerStopMode_Module__diagsEnabled__C        
0000a43c  ti_uia_loggers_LoggerStopMode_Module__diagsIncluded__C       
0000a440  ti_uia_loggers_LoggerStopMode_Module__diagsMask__C           
0000a4f2  ti_uia_loggers_LoggerStopMode_Module__id__C                  
200023a0  ti_uia_loggers_LoggerStopMode_Module__root__V                
00005d55  ti_uia_loggers_LoggerStopMode_Module_startup__E              
0000a27c  ti_uia_loggers_LoggerStopMode_Object__DESC__C                
0000a0c4  ti_uia_loggers_LoggerStopMode_Object__PARAMS__C              
0000a444  ti_uia_loggers_LoggerStopMode_Object__count__C               
00006b99  ti_uia_loggers_LoggerStopMode_Object__create__S              
000073c9  ti_uia_loggers_LoggerStopMode_Object__delete__S              
00007ae9  ti_uia_loggers_LoggerStopMode_Object__get__S                 
20001dcc  ti_uia_loggers_LoggerStopMode_Object__table__V               
00007887  ti_uia_loggers_LoggerStopMode_disable__E                     
0000789d  ti_uia_loggers_LoggerStopMode_enable__E                      
0000507b  ti_uia_loggers_LoggerStopMode_flush__E                       
000054bd  ti_uia_loggers_LoggerStopMode_getContents__E                 
0000551d  ti_uia_loggers_LoggerStopMode_getFilterLevel__E              
0000588d  ti_uia_loggers_LoggerStopMode_getInstanceId__E               
000058e5  ti_uia_loggers_LoggerStopMode_getMaxLength__E                
0000593d  ti_uia_loggers_LoggerStopMode_getPriority__E                 
00005a8d  ti_uia_loggers_LoggerStopMode_getTransferType__E             
0000606d  ti_uia_loggers_LoggerStopMode_initBuffer__I                  
00004599  ti_uia_loggers_LoggerStopMode_initQueueDescriptor__E         
00007af9  ti_uia_loggers_LoggerStopMode_isEmpty__E                     
0000a4f4  ti_uia_loggers_LoggerStopMode_isTimestampEnabled__C          
000067c5  ti_uia_loggers_LoggerStopMode_reset__E                       
00004b57  ti_uia_loggers_LoggerStopMode_setFilterLevel__E              
00004d8f  ti_uia_loggers_LoggerStopMode_setPriority__E                 
000039d1  ti_uia_loggers_LoggerStopMode_write0__E                      
00003645  ti_uia_loggers_LoggerStopMode_write1__E                      
0000372d  ti_uia_loggers_LoggerStopMode_write2__E                      
00003375  ti_uia_loggers_LoggerStopMode_write4__E                      
00002d75  ti_uia_loggers_LoggerStopMode_write8__E                      
000026b9  ti_uia_loggers_LoggerStopMode_writeMemoryRange__E            
0000a448  ti_uia_runtime_ILoggerSnapshot_Interface__BASE__C            
0000a44c  ti_uia_runtime_IUIATransfer_Interface__BASE__C               
20002340  ti_uia_runtime_QueueDescriptor_Module__state__V              
00004b59  ti_uia_runtime_QueueDescriptor_addToList__E                  
20002368  ti_uia_runtime_QueueDescriptor_gPtrToFirstDescriptor         
2000236c  ti_uia_runtime_QueueDescriptor_gUpdateCount                  
200022d0  timePrev                                                     
20001bb8  timeStep                                                     
0000a450  xdc_runtime_Assert_E_assertFailed__C                         
000059e9  xdc_runtime_Assert_raise__I                                  
0000a454  xdc_runtime_Core_A_initializedParams__C                      
0000a458  xdc_runtime_Core_Module__diagsEnabled__C                     
0000a45c  xdc_runtime_Core_Module__diagsIncluded__C                    
0000a460  xdc_runtime_Core_Module__diagsMask__C                        
0000a4f6  xdc_runtime_Core_Module__id__C                               
000067f9  xdc_runtime_Core_assignLabel__I                              
00005f51  xdc_runtime_Core_assignParams__I                             
00003c4d  xdc_runtime_Core_constructObject__I                          
00002f89  xdc_runtime_Core_createObject__I                             
000050e1  xdc_runtime_Core_deleteObject__I                             
0000a464  xdc_runtime_Error_E_memory__C                                
0000a468  xdc_runtime_Error_Module__diagsEnabled__C                    
0000a46c  xdc_runtime_Error_Module__diagsIncluded__C                   
0000a470  xdc_runtime_Error_Module__diagsMask__C                       
0000a4f8  xdc_runtime_Error_Module__loggerDefined__C                   
0000a474  xdc_runtime_Error_Module__loggerFxn8__C                      
0000a478  xdc_runtime_Error_Module__loggerObj__C                       
200023f2  xdc_runtime_Error_Module__state__V                           
000077d1  xdc_runtime_Error_check__E                                   
00005c65  xdc_runtime_Error_getSite__E                                 
00007cf1  xdc_runtime_Error_init__E                                    
0000a4fa  xdc_runtime_Error_maxDepth__C                                
00002a41  xdc_runtime_Error_policyDefault__E                           
0000a47c  xdc_runtime_Error_policyFxn__C                               
00009d8d  xdc_runtime_Error_policy__C                                  
00004e6d  xdc_runtime_Error_print__E                                   
0000a480  xdc_runtime_Error_raiseHook__C                               
00007551  xdc_runtime_Error_raiseX__E                                  
000060b1  xdc_runtime_Error_setX__E                                    
00007cfd  xdc_runtime_Gate_enterSystem__E                              
00007b09  xdc_runtime_Gate_leaveSystem__E                              
0000a484  xdc_runtime_IFilterLogger_Interface__BASE__C                 
0000a488  xdc_runtime_IGateProvider_Interface__BASE__C                 
0000a48c  xdc_runtime_IHeap_Interface__BASE__C                         
0000a490  xdc_runtime_ILogger_Interface__BASE__C                       
0000a494  xdc_runtime_IModule_Interface__BASE__C                       
0000a498  xdc_runtime_Log_L_error__C                                   
000075f5  xdc_runtime_Main_Module_GateProxy_Handle__label__S           
00007349  xdc_runtime_Main_Module_GateProxy_Object__delete__S          
00007df9  xdc_runtime_Main_Module_GateProxy_query__E                   
00007629  xdc_runtime_Memory_HeapProxy_Handle__label__S                
00007369  xdc_runtime_Memory_HeapProxy_Object__delete__S               
00007d4b  xdc_runtime_Memory_HeapProxy_alloc__E                        
00007d55  xdc_runtime_Memory_HeapProxy_free__E                         
0000a4fc  xdc_runtime_Memory_Module__id__C                             
200023ec  xdc_runtime_Memory_Module__state__V                          
00004ed9  xdc_runtime_Memory_alloc__E                                  
00007d09  xdc_runtime_Memory_calloc__E                                 
0000a49c  xdc_runtime_Memory_defaultHeapInstance__C                    
00007b19  xdc_runtime_Memory_free__E                                   
00007d15  xdc_runtime_Memory_getMaxDefaultTypeAlign__E                 
0000756d  xdc_runtime_Memory_valloc__E                                 
200023a8  xdc_runtime_Registry_Module__state__V                        
000073e9  xdc_runtime_Registry_findById__E                             
200023b0  xdc_runtime_Startup_Module__state__V                         
00000001  xdc_runtime_Startup__EXECFXN__C                              
00000001  xdc_runtime_Startup__RESETFXN__C                             
0000a4a0  xdc_runtime_Startup_execImpl__C                              
00005ae1  xdc_runtime_Startup_exec__E                                  
000079b3  xdc_runtime_Startup_exec__I                                  
0000a370  xdc_runtime_Startup_firstFxns__A                             
0000a38c  xdc_runtime_Startup_firstFxns__C                             
0000a4a4  xdc_runtime_Startup_lastFxns__A                              
0000a394  xdc_runtime_Startup_lastFxns__C                              
0000a4a8  xdc_runtime_Startup_maxPasses__C                             
00007bcf  xdc_runtime_Startup_reset__I                                 
00007d21  xdc_runtime_Startup_rtsDone__E                               
0000a2fc  xdc_runtime_Startup_sfxnRts__A                               
0000a4ac  xdc_runtime_Startup_sfxnRts__C                               
0000a070  xdc_runtime_Startup_sfxnTab__A                               
0000a4b0  xdc_runtime_Startup_sfxnTab__C                               
00003185  xdc_runtime_Startup_startMods__I                             
20001a60  xdc_runtime_SysMin_Module_State_0_outbuf__A                  
2000234c  xdc_runtime_SysMin_Module__state__V                          
00007409  xdc_runtime_SysMin_Module_startup__E                         
00006bc9  xdc_runtime_SysMin_abort__E                                  
0000a4b4  xdc_runtime_SysMin_bufSize__C                                
00007589  xdc_runtime_SysMin_exit__E                                   
0000a4fe  xdc_runtime_SysMin_flushAtExit__C                            
000060f5  xdc_runtime_SysMin_flush__E                                  
0000a4b8  xdc_runtime_SysMin_outputFunc__C                             
00007221  xdc_runtime_SysMin_output__I                                 
000065d9  xdc_runtime_SysMin_putch__E                                  
00007b29  xdc_runtime_SysMin_ready__E                                  
000075f5  xdc_runtime_System_Module_GateProxy_Handle__label__S         
00007349  xdc_runtime_System_Module_GateProxy_Object__delete__S        
00005cb5  xdc_runtime_System_Module_GateProxy_enter__E                 
00005d05  xdc_runtime_System_Module_GateProxy_leave__E                 
00007df9  xdc_runtime_System_Module_GateProxy_query__E                 
200023b8  xdc_runtime_System_Module_State_0_atexitHandlers__A          
0000a4bc  xdc_runtime_System_Module__gateObj__C                        
200023c0  xdc_runtime_System_Module__state__V                          
00007dc3  xdc_runtime_System_Module_startup__E                         
00006bc9  xdc_runtime_System_SupportProxy_abort__E                     
00007589  xdc_runtime_System_SupportProxy_exit__E                      
000060f5  xdc_runtime_System_SupportProxy_flush__E                     
000065d9  xdc_runtime_System_SupportProxy_putch__E                     
00007b29  xdc_runtime_System_SupportProxy_ready__E                     
0000a4c0  xdc_runtime_System_abortFxn__C                               
00003f4d  xdc_runtime_System_abortStd__E                               
000075a5  xdc_runtime_System_abort__E                                  
00007691  xdc_runtime_System_aprintf__E                                
00005fdd  xdc_runtime_System_aprintf_va__F                             
00006611  xdc_runtime_System_atexit__E                                 
00006f2d  xdc_runtime_System_avprintf__E                               
00000e31  xdc_runtime_System_doPrint__I                                
0000a4c4  xdc_runtime_System_exitFxn__C                                
00003f4d  xdc_runtime_System_exitStd__E                                
000077e9  xdc_runtime_System_exit__E                                   
0000a4c8  xdc_runtime_System_extendFxn__C                              
000060f5  xdc_runtime_System_flush__E                                  
00004d91  xdc_runtime_System_formatNum__I                              
0000a4cc  xdc_runtime_System_maxAtexitHandlers__C                      
0000327d  xdc_runtime_System_printfExtend__I                           
000076ab  xdc_runtime_System_printf__E                                 
00006025  xdc_runtime_System_printf_va__F                              
00006bf9  xdc_runtime_System_processAtExit__E                          
00006e13  xdc_runtime_System_putchar__I                                
000071fd  xdc_runtime_System_vprintf__E                                
00007b39  xdc_runtime_System_vsnprintf__E                              
0000a500  xdc_runtime_Text_charCnt__C                                  
00007e30  xdc_runtime_Text_charTab__A                                  
0000a4d0  xdc_runtime_Text_charTab__C                                  
00006dbd  xdc_runtime_Text_cordText__E                                 
0000a502  xdc_runtime_Text_isLoaded__C                                 
0000a4d4  xdc_runtime_Text_nameEmpty__C                                
0000a4d8  xdc_runtime_Text_nameStatic__C                               
0000a4dc  xdc_runtime_Text_nameUnknown__C                              
00009d8e  xdc_runtime_Text_nodeTab__A                                  
0000a4e0  xdc_runtime_Text_nodeTab__C                                  
0000682d  xdc_runtime_Text_printVisFxn__I                              
0000557d  xdc_runtime_Text_putLab__E                                   
00004201  xdc_runtime_Text_putMod__E                                   
0000433d  xdc_runtime_Text_putSite__E                                  
0000a504  xdc_runtime_Text_registryModsLastId__C                       
00007801  xdc_runtime_Text_ropeText__E                                 
0000a506  xdc_runtime_Text_unnamedModsLastId__C                        
00005b31  xdc_runtime_Text_visitRope2__I                               
0000a4e4  xdc_runtime_Text_visitRopeFxn__C                             
00007b49  xdc_runtime_Text_visitRope__I                                
00006139  xdc_runtime_Text_xprintf__I                                  
000052e1  xdc_runtime_Timestamp_SupportProxy_get32__E                  
00004bd1  xdc_runtime_Timestamp_SupportProxy_get64__E                  
00007a39  xdc_runtime_Timestamp_SupportProxy_getFreq__E                
000052e1  xdc_runtime_Timestamp_get32__E                               
00004bd1  xdc_runtime_Timestamp_get64__E                               
00007a39  xdc_runtime_Timestamp_getFreq__E                             


GLOBAL SYMBOLS: SORTED BY Symbol Address 

address   name                                                         
-------   ----                                                         
00000000  __ASM__                                                      
00000000  ti_sysbios_family_arm_m3_Hwi_resetVectors                    
00000001  xdc_runtime_Startup__EXECFXN__C                              
00000001  xdc_runtime_Startup__RESETFXN__C                             
00000041  pow                                                          
00000041  powl                                                         
00000076  __ISA__                                                      
00000089  __PLAT__                                                     
000000ac  __TARG__                                                     
000000d2  __TRDR__                                                     
00000300  __STACK_SIZE                                                 
00000a01  ti_sysbios_family_arm_m3_Hwi_excDumpRegs__I                  
00000e31  xdc_runtime_System_doPrint__I                                
0000117d  leer_imu                                                     
0000149d  atan                                                         
0000149d  atanl                                                        
00001789  Power_sleep                                                  
000019ed  __aeabi_dsub                                                 
000019f7  __aeabi_dadd                                                 
00001d43  PowerMSP432_initPolicy                                       
00001d45  I2CMSP432_open                                               
00001ebd  CPU_wfi                                                      
00001ec1  ti_sysbios_family_arm_m3_Hwi_excBusFault__I                  
00002035  HwiP_disable                                                 
00002039  ti_sysbios_family_arm_m3_Hwi_excUsageFault__I                
0000219d  sqrt                                                         
0000219d  sqrtl                                                        
000022f5  I2C_setSlaveAddress                                          
000022f9  ti_sysbios_family_arm_m3_Hwi_excMemFault__I                  
00002441  GPIO_setConfig                                               
00002581  ti_sysbios_knl_Semaphore_pend__E                             
000026b9  ti_uia_loggers_LoggerStopMode_writeMemoryRange__E            
000027f1  __aeabi_ddiv                                                 
00002927  I2CMSP432_hwiIntFxn                                          
00002a3f  _nop                                                         
00002a41  xdc_runtime_Error_policyDefault__E                           
00002b59  ldexp                                                        
00002b59  ldexpl                                                       
00002b59  scalbn                                                       
00002b59  scalbnl                                                      
00002c69  ti_sysbios_family_arm_m3_Hwi_excFillContext__I               
00002d75  ti_uia_loggers_LoggerStopMode_write8__E                      
00002e81  ti_sysbios_family_arm_m3_Hwi_excHandlerMax__I                
00002f89  xdc_runtime_Core_createObject__I                             
00003089  __aeabi_dmul                                                 
00003185  xdc_runtime_Startup_startMods__I                             
0000327d  xdc_runtime_System_printfExtend__I                           
00003375  ti_uia_loggers_LoggerStopMode_write4__E                      
00003559  ti_sysbios_family_arm_m3_Hwi_dispatch__I                     
00003645  ti_uia_loggers_LoggerStopMode_write1__E                      
0000372d  ti_uia_loggers_LoggerStopMode_write2__E                      
00003815  CS_initClockSignal                                           
000039d1  ti_uia_loggers_LoggerStopMode_write0__E                      
00003aa9  ti_sysbios_heaps_HeapMem_alloc__E                            
00003b7d  List_head                                                    
00003b81  ti_sysbios_knl_Task_Instance_init__E                         
00003c4d  xdc_runtime_Core_constructObject__I                          
00003d19  ti_sysbios_family_arm_m3_Hwi_excDebugMon__I                  
00003dd5  List_next                                                    
00003dd9  ti_sysbios_family_arm_m3_Hwi_excHardFault__I                 
00003e95  PowerMSP432_getNumPerfLevels                                 
00003e99  ti_sysbios_knl_Task_Instance_finalize__E                     
00003f4d  C$$EXIT                                                      
00003f4d  abort                                                        
00003f4d  xdc_runtime_System_abortStd__E                               
00003f4d  xdc_runtime_System_exitStd__E                                
00003f51  ti_sysbios_knl_Task_checkStacks__E                           
000040b5  ti_sysbios_BIOS_RtsGateProxy_enter__E                        
000040b9  ti_sysbios_family_arm_msp432_Timer_periodicStub__E           
00004161  __TI_auto_init                                               
00004201  xdc_runtime_Text_putMod__E                                   
000042a1  __aeabi_memcpy                                               
000042a1  __aeabi_memcpy4                                              
000042a1  __aeabi_memcpy8                                              
000042a1  memcpy                                                       
0000433d  xdc_runtime_Text_putSite__E                                  
000043d7  __aeabi_idiv0                                                
000043d7  __aeabi_ldiv0                                                
000043d9  ti_sysbios_family_arm_m3_Hwi_Instance_init__E                
0000446d  ti_sysbios_BIOS_RtsGateProxy_leave__E                        
00004471  ti_sysbios_family_arm_m3_Hwi_initNVIC__E                     
00004505  I2CMSP432_cancel                                             
00004597  ti_sysbios_BIOS_nullFunc__I                                  
00004599  ti_uia_loggers_LoggerStopMode_initQueueDescriptor__E         
00004629  I2CMSP432_transfer                                           
000046b5  ti_sysbios_family_arm_m3_TaskSupport_buildTaskStack          
00004741  ti_sysbios_knl_Task_postInit__I                              
000047cd  __aeabi_cdcmpeq                                              
000047cd  __aeabi_cdcmple                                              
00004853  __aeabi_cdrcmple                                             
000048d9  ti_sysbios_family_arm_m3_Hwi_postInit__I                     
0000495d  ti_sysbios_family_arm_m3_Hwi_destruct                        
00004961  ti_sysbios_utils_Load_updateLoads__E                         
00004961  ti_sysbios_utils_Load_update__E                              
000049e1  PCM_gotoLPM3                                                 
00004a5d  ti_sysbios_family_arm_m3_TaskSupport_Module__startupDone__S  
00004a5d  ti_sysbios_knl_Task_SupportProxy_Module__startupDone__S      
00004a61  ti_sysbios_heaps_HeapMem_free__E                             
00004add  __aeabi_memclr                                               
00004add  __aeabi_memclr4                                              
00004add  __aeabi_memclr8                                              
00004adf  __aeabi_memset                                               
00004adf  __aeabi_memset4                                              
00004adf  __aeabi_memset8                                              
00004ae5  memset                                                       
00004b57  ti_uia_loggers_LoggerStopMode_setFilterLevel__E              
00004b59  ti_uia_runtime_QueueDescriptor_addToList__E                  
00004bcd  ti_sysbios_heaps_HeapMem_Module_GateProxy_enter__E           
00004bd1  ti_sysbios_family_arm_m3_TimestampProvider_get64__E          
00004bd1  xdc_runtime_Timestamp_SupportProxy_get64__E                  
00004bd1  xdc_runtime_Timestamp_get64__E                               
00004c41  ti_sysbios_knl_Clock_workFunc__E                             
00004cb1  ti_sysbios_knl_Task_exit__E                                  
00004d21  __aeabi_d2f                                                  
00004d8f  ti_uia_loggers_LoggerStopMode_setPriority__E                 
00004d91  xdc_runtime_System_formatNum__I                              
00004e01  ti_sysbios_knl_Swi_restoreHwi__E                             
00004e6d  xdc_runtime_Error_print__E                                   
00004ed9  xdc_runtime_Memory_alloc__E                                  
00004f45  __TI_decompress_lzss                                         
00005015  I2CMSP432_close                                              
0000507b  ti_uia_loggers_LoggerStopMode_flush__E                       
000050e1  xdc_runtime_Core_deleteObject__I                             
00005149  ti_sysbios_family_arm_m3_Hwi_dispatchC__I                    
000051ad  ti_sysbios_heaps_HeapMem_Module_GateProxy_leave__E           
000051b1  ti_sysbios_knl_Semaphore_post__E                             
00005215  ti_sysbios_knl_Clock_TimerProxy_getMaxTicks__E               
00005219  ti_sysbios_utils_Load_idleFxn__E                             
0000527d  HwiP_create                                                  
000052e1  ti_sysbios_family_arm_m3_TimestampProvider_get32__E          
000052e1  xdc_runtime_Timestamp_SupportProxy_get32__E                  
000052e1  xdc_runtime_Timestamp_get32__E                               
00005341  ti_sysbios_knl_Task_schedule__I                              
000053a1  GPIO_init                                                    
000053fd  ti_sysbios_knl_Queue_destruct                                
00005401  ti_sysbios_knl_Swi_run__I                                    
0000545d  ti_sysbios_knl_Semaphore_destruct                            
00005461  ti_sysbios_knl_Swi_schedule__I                               
000054bd  ti_uia_loggers_LoggerStopMode_getContents__E                 
000054c1  ti_sysbios_knl_Task_Module_startup__E                        
0000551d  ti_uia_loggers_LoggerStopMode_getFilterLevel__E              
00005521  ti_sysbios_knl_Task_startCore__E                             
0000557d  xdc_runtime_Text_putLab__E                                   
000055d9  HOSTwrite                                                    
00005631  SemaphoreP_create                                            
00005689  _c_int00                                                     
000056e1  ti_sysbios_family_arm_m3_Hwi_construct                       
00005739  ti_sysbios_family_arm_m3_Hwi_initStacks__E                   
00005791  GPIO_hwiIntFxn                                               
000057e5  GPIO_setCallback                                             
0000588d  ti_uia_loggers_LoggerStopMode_getInstanceId__E               
00005891  ti_sysbios_family_arm_m3_Timer_start__E                      
000058e5  ti_uia_loggers_LoggerStopMode_getMaxLength__E                
000058e9  ti_sysbios_family_arm_msp432_Timer_initDevice__I             
0000593d  ti_uia_loggers_LoggerStopMode_getPriority__E                 
00005941  ti_sysbios_family_arm_msp432_init_Boot_configureClocksHigh   
00005995  ti_sysbios_knl_Task_construct                                
000059e9  xdc_runtime_Assert_raise__I                                  
00005a3d  PCM_shutdownDevice                                           
00005a8d  ti_uia_loggers_LoggerStopMode_getTransferType__E             
00005a91  ti_sysbios_family_arm_m3_Hwi_Module_startup__E               
00005ae1  xdc_runtime_Startup_exec__E                                  
00005b31  xdc_runtime_Text_visitRope2__I                               
00005b81  copy_in                                                      
00005bcd  main                                                         
00005c19  ti_sysbios_family_arm_msp432_Timer_start__E                  
00005c65  xdc_runtime_Error_getSite__E                                 
00005c69  ti_sysbios_heaps_HeapMem_getStats__E                         
00005cb5  xdc_runtime_System_Module_GateProxy_enter__E                 
00005cb9  ti_sysbios_knl_Swi_runLoop__I                                
00005d05  xdc_runtime_System_Module_GateProxy_leave__E                 
00005d09  ti_sysbios_knl_Task_allBlockedFunction__I                    
00005d55  ti_uia_loggers_LoggerStopMode_Module_startup__E              
00005da1  GPIO_setAsPeripheralModuleFunctionInputPin                   
00005de9  ti_sysbios_family_arm_m3_Hwi_disableInterrupt__E             
00005de9  ti_sysbios_hal_Hwi_HwiProxy_disableInterrupt__E              
00005de9  ti_sysbios_hal_Hwi_disableInterrupt__E                       
00005e31  ti_sysbios_family_arm_m3_Hwi_enableInterrupt__E              
00005e31  ti_sysbios_hal_Hwi_HwiProxy_enableInterrupt__E               
00005e31  ti_sysbios_hal_Hwi_enableInterrupt__E                        
00005e79  ti_sysbios_family_arm_m3_Hwi_excReserved__I                  
00005ec1  ti_sysbios_family_arm_m3_Timer_initDevice__I                 
00005f09  ti_sysbios_family_arm_m3_Timer_setPeriod__E                  
00005f51  xdc_runtime_Core_assignParams__I                             
00005f99  Power_init                                                   
00005fdd  xdc_runtime_System_aprintf_va__F                             
00005fe1  ti_sysbios_family_arm_m3_Hwi_getStackInfo__E                 
00005fe1  ti_sysbios_hal_Hwi_HwiProxy_getStackInfo__E                  
00005fe1  ti_sysbios_hal_Hwi_getStackInfo__E                           
00006025  xdc_runtime_System_printf_va__F                              
00006029  ti_sysbios_knl_Swi_post__E                                   
0000606d  ti_uia_loggers_LoggerStopMode_initBuffer__I                  
000060b1  xdc_runtime_Error_setX__E                                    
000060f5  xdc_runtime_SysMin_flush__E                                  
000060f5  xdc_runtime_System_SupportProxy_flush__E                     
000060f5  xdc_runtime_System_flush__E                                  
00006139  xdc_runtime_Text_xprintf__I                                  
000061c1  FlashCtl_disableReadBuffering                                
00006201  I2C_masterSendMultiByteFinish                                
00006281  __aeabi_uidiv                                                
00006281  __aeabi_uidivmod                                             
000062c1  ti_sysbios_family_arm_msp432_Timer_Module_startup__E         
00006301  ti_sysbios_family_arm_msp432_Timer_startup__E                
00006301  ti_sysbios_knl_Clock_TimerProxy_startup__E                   
00006341  ti_sysbios_heaps_HeapMem_Instance_init__E                    
00006381  I2C_initMaster                                               
000063bf  PowerMSP432_sleepPolicy                                      
000063fb  I2CMSP432_control                                            
00006401  ti_sysbios_family_arm_m3_Hwi_excSvCall__I                    
00006441  ti_sysbios_heaps_HeapMem_init__I                             
00006481  ti_sysbios_knl_Swi_restore__E                                
000064bd  I2C_init                                                     
000064f5  __TI_writemsg                                                
00006523  C$$IO$$                                                      
00006565  __aeabi_f2d                                                  
000065a1  ti_sysbios_family_arm_m3_Hwi_excNoIsr__I                     
000065d9  xdc_runtime_SysMin_putch__E                                  
000065d9  xdc_runtime_System_SupportProxy_putch__E                     
00006611  xdc_runtime_System_atexit__E                                 
00006649  FlashCtl_enableReadBuffering                                 
0000667d  __TI_readmsg                                                 
000066b1  ti_sysbios_BIOS_startFunc__I                                 
000066e9  ti_sysbios_family_arm_m3_Hwi_Instance_finalize__E            
00006721  ti_sysbios_family_arm_m3_Hwi_excNmi__I                       
00006759  ti_sysbios_family_arm_m3_Timer_periodicStub__I               
00006791  ti_sysbios_hal_Hwi_checkStack                                
000067c5  ti_uia_loggers_LoggerStopMode_reset__E                       
000067f9  xdc_runtime_Core_assignLabel__I                              
0000682d  xdc_runtime_Text_printVisFxn__I                              
00006861  ti_sysbios_hal_Hwi_initStack                                 
00006895  GPIO_getEnabledInterruptStatus                               
000068c5  GPIO_setAsInputPinWithPullDownResistor                       
000068f5  GPIO_setAsInputPinWithPullUpResistor                         
00006925  I2C_open                                                     
00006955  ti_sysbios_BIOS_atExitFunc__I                                
00006989  ti_sysbios_family_arm_m3_TaskSupport_start__E                
00006989  ti_sysbios_knl_Task_SupportProxy_start__E                    
000069b9  ti_sysbios_family_arm_msp432_Timer_setPeriod__E              
000069e9  ti_sysbios_gates_GateHwi_Object__create__S                   
00006a19  ti_sysbios_gates_GateMutex_Object__create__S                 
00006a49  ti_sysbios_gates_GateMutex_enter__E                          
00006a79  ti_sysbios_heaps_HeapMem_Object__create__S                   
00006aa9  ti_sysbios_knl_Semaphore_construct                           
00006ad9  ti_sysbios_knl_Semaphore_pendTimeout__I                      
00006b09  ti_sysbios_knl_Task_processVitalTaskFlag__I                  
00006b39  ti_sysbios_knl_Task_unblockI__E                              
00006b69  ti_sysbios_utils_Load_updateCurrentThreadTime__E             
00006b99  ti_uia_loggers_LoggerStopMode_Object__create__S              
00006bc9  xdc_runtime_SysMin_abort__E                                  
00006bc9  xdc_runtime_System_SupportProxy_abort__E                     
00006bf9  xdc_runtime_System_processAtExit__E                          
00006c29  __aeabi_i2d                                                  
00006c59  GPIO_setAsInputPin                                           
00006c85  PCM_getCoreVoltageLevel                                      
00006cb1  PowerMSP432_updateFreqs                                      
00006cdd  Power_releaseConstraint                                      
00006d09  Power_setConstraint                                          
00006d35  ti_sysbios_knl_Clock_doTick__I                               
00006d61  ti_sysbios_knl_Queue_construct                               
00006d91  ti_sysbios_knl_Task_restore__E                               
00006dbd  xdc_runtime_Text_cordText__E                                 
00006de9  PCM_getPowerMode                                             
00006e13  xdc_runtime_System_putchar__I                                
00006e3d  FlashCtl_setWaitState                                        
00006e65  PCM_gotoLPM0                                                 
00006e91  ti_sysbios_knl_Clock_addI__E                                 
00006eb9  ti_sysbios_knl_Swi_Module_startup__E                         
00006ee1  List_put                                                     
00006f07  ti_sysbios_family_arm_m3_Hwi_pendSV__I                       
00006f2b  ti_sysbios_family_arm_m3_Hwi_return                          
00006f2d  xdc_runtime_System_avprintf__E                               
00006f55  CS_setDCOCenteredFrequency                                   
00006f79  GPIO_setAsOutputPin                                          
00006f9d  I2C_masterSendMultiByteNext                                  
00006fc1  RTC_C_holdClock                                              
00006fe5  RTC_C_startClock                                             
00007009  ti_sysbios_BIOS_errorRaiseHook__I                            
0000702d  ti_sysbios_BIOS_registerRTSLock__I                           
00007051  ti_sysbios_BIOS_removeRTSLock__I                             
00007079  ti_sysbios_family_arm_m3_Timer_Module_startup__E             
000070a1  ti_sysbios_family_arm_m3_Timer_postInit__I                   
000070c9  ti_sysbios_family_arm_m3_Timer_startup__E                    
000070f1  ti_sysbios_family_arm_msp432_ClockFreqs_setFrequency__E      
00007119  ti_sysbios_family_arm_msp432_Timer_postInit__I               
0000713d  ti_sysbios_BIOS_RtsGateProxy_Object__delete__S               
0000713d  ti_sysbios_gates_GateMutex_Object__delete__S                 
0000713d  ti_sysbios_heaps_HeapMem_Module_GateProxy_Object__delete__S  
00007161  ti_sysbios_knl_Clock_Module_startup__E                       
00007189  ti_sysbios_knl_Semaphore_Instance_init__E                    
000071b1  ti_sysbios_knl_Task_restoreHwi__E                            
000071d9  ti_sysbios_utils_Load_updateThreadContexts__E                
000071fd  xdc_runtime_System_vprintf__E                                
00007221  xdc_runtime_SysMin_output__I                                 
00007245  GPIO_interruptEdgeSelect                                     
00007265  PowerMSP432_getFreqs                                         
00007285  Power_unregisterNotify                                       
000072a5  __aeabi_ui2d                                                 
000072c5  ti_sysbios_BIOS_rtsLock__I                                   
000072e5  ti_sysbios_family_arm_m3_Hwi_excHandlerAsm__I                
00007309  ti_sysbios_family_arm_m3_Hwi_excHandler__I                   
00007329  ti_sysbios_family_arm_m3_TimestampProvider_Module_startup__E 
00007349  ti_sysbios_gates_GateHwi_Object__delete__S                   
00007349  xdc_runtime_Main_Module_GateProxy_Object__delete__S          
00007349  xdc_runtime_System_Module_GateProxy_Object__delete__S        
00007369  ti_sysbios_heaps_HeapMem_Object__delete__S                   
00007369  xdc_runtime_Memory_HeapProxy_Object__delete__S               
00007389  ti_sysbios_knl_Idle_run__E                                   
000073a9  ti_sysbios_knl_Semaphore_Object__destruct__S                 
000073c9  ti_uia_loggers_LoggerStopMode_Object__delete__S              
000073e9  xdc_runtime_Registry_findById__E                             
00007409  xdc_runtime_SysMin_Module_startup__E                         
00007429  ti_sysbios_family_xxx_Hwi_switchAndRunFunc                   
00007449  PCM_enableRudeMode                                           
00007465  Power_registerNotify                                         
00007481  ti_sysbios_family_arm_m3_Hwi_Object__destruct__S             
000074a1  ti_sysbios_family_arm_m3_Timer_stop__E                       
000074c1  ti_sysbios_gates_GateMutex_Instance_init__E                  
000074dd  ti_sysbios_knl_Queue_Object__destruct__S                     
000074f9  ti_sysbios_knl_Queue_put__E                                  
00007519  ti_sysbios_knl_Task_enter__I                                 
00007535  ti_uia_loggers_LoggerStopMode_Instance_init__E               
00007551  xdc_runtime_Error_raiseX__E                                  
0000756d  xdc_runtime_Memory_valloc__E                                 
00007589  xdc_runtime_SysMin_exit__E                                   
00007589  xdc_runtime_System_SupportProxy_exit__E                      
000075a5  xdc_runtime_System_abort__E                                  
000075c1  List_remove                                                  
000075db  ti_sysbios_family_arm_m3_Hwi_Handle__label__S                
000075db  ti_sysbios_hal_Hwi_HwiProxy_Handle__label__S                 
000075f5  ti_sysbios_gates_GateHwi_Handle__label__S                    
000075f5  xdc_runtime_Main_Module_GateProxy_Handle__label__S           
000075f5  xdc_runtime_System_Module_GateProxy_Handle__label__S         
0000760f  ti_sysbios_BIOS_RtsGateProxy_Handle__label__S                
0000760f  ti_sysbios_gates_GateMutex_Handle__label__S                  
0000760f  ti_sysbios_heaps_HeapMem_Module_GateProxy_Handle__label__S   
00007629  ti_sysbios_heaps_HeapMem_Handle__label__S                    
00007629  xdc_runtime_Memory_HeapProxy_Handle__label__S                
00007643  ti_sysbios_knl_Swi_Handle__label__S                          
0000765d  ti_sysbios_knl_Task_Handle__label__S                         
00007677  ti_uia_loggers_LoggerStopMode_Handle__label__S               
00007691  xdc_runtime_System_aprintf__E                                
000076ab  xdc_runtime_System_printf__E                                 
000076c5  GPIO_clearInterruptFlag                                      
000076dd  GPIO_setDriveStrengthLow                                     
000076f5  GPIO_setOutputLowOnPin                                       
0000770d  I2C_masterIsStartSent                                        
00007725  WDT_A_holdTimer                                              
0000773d  _args_main                                                   
00007755  ti_sysbios_BIOS_rtsUnlock__I                                 
0000776d  ti_sysbios_family_arm_m3_Hwi_Module__startupDone__F          
0000776d  ti_sysbios_family_arm_m3_Hwi_Module__startupDone__S          
0000776d  ti_sysbios_hal_Hwi_HwiProxy_Module__startupDone__S           
00007785  ti_sysbios_family_arm_m3_TaskSupport_swap__E                 
00007785  ti_sysbios_knl_Task_SupportProxy_swap__E                     
00007791  ti_sysbios_knl_Task_swapReturn                               
0000779d  ti_sysbios_family_arm_msp432_Timer_Module__startupDone__F    
0000779d  ti_sysbios_family_arm_msp432_Timer_Module__startupDone__S    
0000779d  ti_sysbios_knl_Clock_TimerProxy_Module__startupDone__S       
000077b9  ti_sysbios_gates_GateMutex_leave__E                          
000077d1  xdc_runtime_Error_check__E                                   
000077e9  xdc_runtime_System_exit__E                                   
00007801  xdc_runtime_Text_ropeText__E                                 
00007819  HwiP_delete                                                  
0000782f  SemaphoreP_delete                                            
00007845  ti_sysbios_BIOS_exitFunc__I                                  
00007871  ti_sysbios_knl_Task_unblock__E                               
00007887  ti_uia_loggers_LoggerStopMode_disable__E                     
0000789d  ti_uia_loggers_LoggerStopMode_enable__E                      
000078b5  GPIO_setDriveStrengthHigh                                    
000078c9  GPIO_setOutputHighOnPin                                      
000078dd  Power_idleFunc                                               
000078f1  WDT_A_startTimer                                             
00007905  copysign                                                     
00007905  copysignl                                                    
00007919  strlen                                                       
0000792d  ti_sysbios_family_arm_m3_Hwi_Object__get__S                  
00007941  ti_sysbios_family_arm_m3_Hwi_switchFromBootStack__E          
00007941  ti_sysbios_hal_Hwi_HwiProxy_switchFromBootStack__E           
00007941  ti_sysbios_hal_Hwi_switchFromBootStack__E                    
00007955  ti_sysbios_heaps_HeapMem_Object__get__S                      
00007969  ti_sysbios_knl_Swi_Object__get__S                            
0000797d  MSP_EXP432P401R_initI2C                                      
0000798f  SemaphoreP_pend                                              
000079a1  ti_sysbios_hal_Hwi_Module_startup__E                         
000079b3  xdc_runtime_Startup_exec__I                                  
000079c5  GPIO_getInterruptStatus                                      
000079d5  I2C_Params_init                                              
000079e5  I2C_masterReceiveMultiByteStop                               
000079f5  I2C_masterReceiveStart                                       
00007a05  I2C_masterSendStart                                          
00007a15  PCM_gotoLPM4                                                 
00007a29  ti_sysbios_BIOS_exit__E                                      
00007a39  ti_sysbios_BIOS_getCpuFreq__E                                
00007a39  ti_sysbios_family_arm_m3_TimestampProvider_getFreq__E        
00007a39  xdc_runtime_Timestamp_SupportProxy_getFreq__E                
00007a39  xdc_runtime_Timestamp_getFreq__E                             
00007a49  ti_sysbios_BIOS_setCpuFreq__E                                
00007a59  ti_sysbios_BIOS_setThreadType__E                             
00007a69  osi_start                                                    
00007a69  ti_sysbios_BIOS_start__E                                     
00007a79  ti_sysbios_family_arm_m3_TaskSupport_glue                    
00007a89  ti_sysbios_family_arm_msp432_init_Boot_disableWatchdog       
00007a99  ti_sysbios_gates_GateMutex_Instance_finalize__E              
00007aa9  ti_sysbios_knl_Semaphore_Instance_finalize__E                
00007ab9  ti_sysbios_knl_Swi_disable__E                                
00007ac9  ti_sysbios_knl_Task_Object__get__S                           
00007ad9  osi_TaskDisable                                              
00007ad9  ti_sysbios_knl_Task_disable__E                               
00007ae9  ti_uia_loggers_LoggerStopMode_Object__get__S                 
00007af9  ti_uia_loggers_LoggerStopMode_isEmpty__E                     
00007b09  xdc_runtime_Gate_leaveSystem__E                              
00007b19  xdc_runtime_Memory_free__E                                   
00007b29  xdc_runtime_SysMin_ready__E                                  
00007b29  xdc_runtime_System_SupportProxy_ready__E                     
00007b39  xdc_runtime_System_vsnprintf__E                              
00007b49  xdc_runtime_Text_visitRope__I                                
00007b59  HwiP_Params_init                                             
00007b67  I2C_clearInterruptFlag                                       
00007b75  I2C_disableInterrupt                                         
00007b83  I2C_setMode                                                  
00007b91  __TI_decompress_none                                         
00007ba1  ti_sysbios_knl_Clock_removeI__E                              
00007bb1  ti_sysbios_knl_Idle_loop__E                                  
00007bc1  ti_sysbios_knl_Queue_empty__E                                
00007bcf  ti_sysbios_family_arm_msp432_init_Boot_init__I               
00007bcf  xdc_runtime_Startup_reset__I                                 
00007bdb  CPU_cpsid                                                    
00007be7  CPU_cpsie                                                    
00007bf3  I2C_disableModule                                            
00007bff  I2C_enableModule                                             
00007c0d  PCM_getPowerState                                            
00007c19  Power_getConstraintMask                                      
00007c25  Power_getPerformanceLevel                                    
00007c31  _register_lock                                               
00007c3d  _register_unlock                                             
00007c49  __TI_zero_init                                               
00007c55  ti_sysbios_family_arm_m3_Hwi_Params__init__S                 
00007c55  ti_sysbios_hal_Hwi_HwiProxy_Params__init__S                  
00007c61  ti_sysbios_family_arm_m3_Hwi_disableFxn__E                   
00007c61  ti_sysbios_hal_Hwi_HwiProxy_disable__E                       
00007c71  ti_sysbios_family_arm_m3_TaskSupport_checkStack__E           
00007c71  ti_sysbios_knl_Task_SupportProxy_checkStack__E               
00007c81  ti_sysbios_family_arm_m3_TaskSupport_getStackAlignment__E    
00007c81  ti_sysbios_knl_Task_SupportProxy_getStackAlignment__E        
00007c91  ti_sysbios_family_arm_m3_TimestampProvider_startTimer__E     
00007ca1  ti_sysbios_family_arm_msp432_Timer_getMaxTicks__E            
00007cb1  ti_sysbios_gates_GateHwi_enter__E                            
00007cc1  ClockP_getSystemTicks                                        
00007cc1  ti_sysbios_knl_Clock_getTicks__E                             
00007ccd  ti_sysbios_knl_Queue_Object__get__S                          
00007cd9  ti_sysbios_knl_Semaphore_Params__init__S                     
00007ce5  ti_sysbios_knl_Task_Params__init__S                          
00007cf1  xdc_runtime_Error_init__E                                    
00007cfd  xdc_runtime_Gate_enterSystem__E                              
00007d09  xdc_runtime_Memory_calloc__E                                 
00007d15  xdc_runtime_Memory_getMaxDefaultTypeAlign__E                 
00007d21  xdc_runtime_Startup_rtsDone__E                               
00007d2d  I2CMSP432_init                                               
00007d37  I2C_transfer                                                 
00007d41  SemaphoreP_post                                              
00007d41  SemaphoreP_postFromClock                                     
00007d41  SemaphoreP_postFromISR                                       
00007d4b  xdc_runtime_Memory_HeapProxy_alloc__E                        
00007d55  xdc_runtime_Memory_HeapProxy_free__E                         
00007d5f  I2C_enableInterrupt                                          
00007d67  MSP_EXP432P401R_initGPIO                                     
00007d6f  MSP_EXP432P401R_initGeneral                                  
00007d77  PCM_setPowerMode                                             
00007d7f  PCM_setPowerState                                            
00007d87  SemaphoreP_Params_init                                       
00007d91  __aeabi_errno_addr                                           
00007da1  ti_sysbios_family_arm_m3_Hwi_doSwiRestore__I                 
00007da9  ti_sysbios_family_arm_m3_Hwi_startup__E                      
00007da9  ti_sysbios_hal_Hwi_HwiProxy_startup__E                       
00007da9  ti_sysbios_hal_Hwi_startup__E                                
00007db1  I2C_getEnabledInterruptStatus                                
00007db7  I2C_getInterruptStatus                                       
00007dbd  I2C_masterReceiveMultiByteNext                               
00007dc3  xdc_runtime_System_Module_startup__E                         
00007dc9  ti_sysbios_family_arm_m3_Hwi_doTaskRestore__I                
00007dd1  HwiP_restore                                                 
00007dd1  ti_sysbios_family_arm_m3_Hwi_restoreFxn__E                   
00007dd1  ti_sysbios_hal_Hwi_HwiProxy_restore__E                       
00007dd9  ti_sysbios_gates_GateHwi_leave__E                            
00007de1  ti_sysbios_heaps_HeapMem_isBlocking__E                       
00007de9  ti_sysbios_knl_Queue_Instance_init__E                        
00007df1  ti_sysbios_knl_Swi_startup__E                                
00007df9  ti_sysbios_gates_GateHwi_query__E                            
00007df9  xdc_runtime_Main_Module_GateProxy_query__E                   
00007df9  xdc_runtime_System_Module_GateProxy_query__E                 
00007e01  ti_sysbios_BIOS_RtsGateProxy_query__E                        
00007e01  ti_sysbios_gates_GateMutex_query__E                          
00007e01  ti_sysbios_heaps_HeapMem_Module_GateProxy_query__E           
00007e09  ti_sysbios_knl_Task_startup__E                               
00007e11  ti_sysbios_BIOS_linkedWithIncorrectBootLibrary__E            
00007e19  ti_sysbios_family_arm_m3_TimestampProvider_rolloverFunc__E   
00007e21  ti_sysbios_gates_GateHwi_Instance_init__E                    
00007e29  ti_sysbios_knl_Clock_logTick__E                              
00007e30  xdc_runtime_Text_charTab__A                                  
00009d8d  xdc_runtime_Error_policy__C                                  
00009d8e  xdc_runtime_Text_nodeTab__A                                  
00009e8a  ti_sysbios_family_arm_m3_Hwi_Module__id__C                   
00009e8c  ti_sysbios_family_arm_m3_Hwi_E_NMI__C                        
00009f28  ti_uia_loggers_LoggerStopMode_Module__FXNS__C                
00009fd0  ti_sysbios_knl_Task_Object__PARAMS__C                        
0000a00c  ti_sysbios_family_arm_m3_Hwi_E_alreadyDefined__C             
0000a040  ti_sysbios_family_arm_m3_Hwi_Object__PARAMS__C               
0000a070  xdc_runtime_Startup_sfxnTab__A                               
0000a09c  ti_sysbios_heaps_HeapMem_Module__FXNS__C                     
0000a0c4  ti_uia_loggers_LoggerStopMode_Object__PARAMS__C              
0000a0ec  ti_sysbios_gates_GateHwi_Module__FXNS__C                     
0000a110  ti_sysbios_gates_GateMutex_Module__FXNS__C                   
0000a134  ti_sysbios_heaps_HeapMem_Object__PARAMS__C                   
0000a158  ti_sysbios_knl_Semaphore_Object__PARAMS__C                   
0000a17c  I2CMSP432_fxnTable                                           
0000a19c  ti_sysbios_family_arm_m3_Hwi_Object__DESC__C                 
0000a1bc  ti_sysbios_gates_GateHwi_Object__DESC__C                     
0000a1dc  ti_sysbios_gates_GateMutex_Object__DESC__C                   
0000a1fc  ti_sysbios_heaps_HeapMem_Object__DESC__C                     
0000a21c  ti_sysbios_knl_Queue_Object__DESC__C                         
0000a23c  ti_sysbios_knl_Semaphore_Object__DESC__C                     
0000a25c  ti_sysbios_knl_Task_Object__DESC__C                          
0000a27c  ti_uia_loggers_LoggerStopMode_Object__DESC__C                
0000a29c  I2C_config                                                   
0000a2b4  ti_sysbios_gates_GateHwi_Object__PARAMS__C                   
0000a2cc  ti_sysbios_gates_GateMutex_Object__PARAMS__C                 
0000a2e4  ti_sysbios_knl_Queue_Object__PARAMS__C                       
0000a2fc  xdc_runtime_Startup_sfxnRts__A                               
0000a312  ti_sysbios_family_arm_m3_Timer_Module__id__C                 
0000a314  GPIOMSP432_config                                            
0000a328  PowerMSP432_config                                           
0000a338  I2C_defaultParams                                            
0000a348  i2cMSP432HWAttrs                                             
0000a364  ti_sysbios_knl_Idle_funcList__A                              
0000a370  xdc_runtime_Startup_firstFxns__A                             
0000a37c  ti_sysbios_family_arm_m3_Hwi_excHookFuncs__A                 
0000a384  ti_sysbios_knl_Idle_funcList__C                              
0000a38c  xdc_runtime_Startup_firstFxns__C                             
0000a394  xdc_runtime_Startup_lastFxns__C                              
0000a39c  ti_sysbios_family_arm_m3_Hwi_E_busFault__C                   
0000a3a0  ti_sysbios_family_arm_m3_Hwi_E_debugMon__C                   
0000a3a4  ti_sysbios_family_arm_m3_Hwi_E_hardFault__C                  
0000a3a8  ti_sysbios_family_arm_m3_Hwi_E_memFault__C                   
0000a3ac  ti_sysbios_family_arm_m3_Hwi_E_noIsr__C                      
0000a3b0  ti_sysbios_family_arm_m3_Hwi_E_reserved__C                   
0000a3b4  ti_sysbios_family_arm_m3_Hwi_E_svCall__C                     
0000a3b8  ti_sysbios_family_arm_m3_Hwi_E_usageFault__C                 
0000a3bc  ti_sysbios_family_arm_m3_Hwi_NUM_INTERRUPTS__C               
0000a3c0  ti_sysbios_family_arm_m3_Hwi_Object__count__C                
0000a3c4  ti_sysbios_family_arm_m3_Hwi_ccr__C                          
0000a3c8  ti_sysbios_family_arm_m3_Hwi_excHandlerFunc__C               
0000a3cc  ti_sysbios_family_arm_m3_Hwi_excHookFuncs__C                 
0000a3d0  ti_sysbios_family_arm_m3_Hwi_nullIsrFunc__C                  
0000a3d4  ti_sysbios_family_arm_m3_Hwi_priGroup__C                     
0000a3d8  ti_sysbios_family_arm_m3_TaskSupport_stackAlignment__C       
0000a3dc  ti_sysbios_family_arm_m3_Timer_E_cannotSupport__C            
0000a3e0  ti_sysbios_family_arm_m3_Timer_startupNeeded__C              
0000a3e4  ti_sysbios_family_arm_msp432_Timer_numTimerDevices__C        
0000a3e8  ti_sysbios_family_arm_msp432_Timer_startupNeeded__C          
0000a3ec  ti_sysbios_gates_GateMutex_Instance_State_sem__O             
0000a3f0  ti_sysbios_hal_Hwi_E_stackOverflow__C                        
0000a3f4  ti_sysbios_heaps_HeapMem_E_memory__C                         
0000a3f8  ti_sysbios_heaps_HeapMem_Module__gateObj__C                  
0000a3fc  ti_sysbios_heaps_HeapMem_Object__count__C                    
0000a400  ti_sysbios_heaps_HeapMem_reqAlign__C                         
0000a404  ti_sysbios_knl_Clock_Module_State_clockQ__O                  
0000a408  ti_sysbios_knl_Semaphore_Instance_State_pendQ__O             
0000a40c  ti_sysbios_knl_Swi_Object__count__C                          
0000a410  ti_sysbios_knl_Task_E_spOutOfBounds__C                       
0000a414  ti_sysbios_knl_Task_E_stackOverflow__C                       
0000a418  ti_sysbios_knl_Task_Module_State_inactiveQ__O                
0000a41c  ti_sysbios_knl_Task_Object__count__C                         
0000a420  ti_sysbios_knl_Task_allBlockedFunc__C                        
0000a424  ti_sysbios_knl_Task_defaultStackHeap__C                      
0000a428  ti_sysbios_knl_Task_defaultStackSize__C                      
0000a42c  ti_sysbios_knl_Task_numConstructedTasks__C                   
0000a430  ti_sysbios_utils_Load_postUpdate__C                          
0000a434  ti_sysbios_utils_Load_windowInMs__C                          
0000a438  ti_uia_loggers_LoggerStopMode_Module__diagsEnabled__C        
0000a43c  ti_uia_loggers_LoggerStopMode_Module__diagsIncluded__C       
0000a440  ti_uia_loggers_LoggerStopMode_Module__diagsMask__C           
0000a444  ti_uia_loggers_LoggerStopMode_Object__count__C               
0000a448  ti_uia_runtime_ILoggerSnapshot_Interface__BASE__C            
0000a44c  ti_uia_runtime_IUIATransfer_Interface__BASE__C               
0000a450  xdc_runtime_Assert_E_assertFailed__C                         
0000a454  xdc_runtime_Core_A_initializedParams__C                      
0000a458  xdc_runtime_Core_Module__diagsEnabled__C                     
0000a45c  xdc_runtime_Core_Module__diagsIncluded__C                    
0000a460  xdc_runtime_Core_Module__diagsMask__C                        
0000a464  xdc_runtime_Error_E_memory__C                                
0000a468  xdc_runtime_Error_Module__diagsEnabled__C                    
0000a46c  xdc_runtime_Error_Module__diagsIncluded__C                   
0000a470  xdc_runtime_Error_Module__diagsMask__C                       
0000a474  xdc_runtime_Error_Module__loggerFxn8__C                      
0000a478  xdc_runtime_Error_Module__loggerObj__C                       
0000a47c  xdc_runtime_Error_policyFxn__C                               
0000a480  xdc_runtime_Error_raiseHook__C                               
0000a484  xdc_runtime_IFilterLogger_Interface__BASE__C                 
0000a488  xdc_runtime_IGateProvider_Interface__BASE__C                 
0000a48c  xdc_runtime_IHeap_Interface__BASE__C                         
0000a490  xdc_runtime_ILogger_Interface__BASE__C                       
0000a494  xdc_runtime_IModule_Interface__BASE__C                       
0000a498  xdc_runtime_Log_L_error__C                                   
0000a49c  xdc_runtime_Memory_defaultHeapInstance__C                    
0000a4a0  xdc_runtime_Startup_execImpl__C                              
0000a4a4  xdc_runtime_Startup_lastFxns__A                              
0000a4a8  xdc_runtime_Startup_maxPasses__C                             
0000a4ac  xdc_runtime_Startup_sfxnRts__C                               
0000a4b0  xdc_runtime_Startup_sfxnTab__C                               
0000a4b4  xdc_runtime_SysMin_bufSize__C                                
0000a4b8  xdc_runtime_SysMin_outputFunc__C                             
0000a4bc  xdc_runtime_System_Module__gateObj__C                        
0000a4c0  xdc_runtime_System_abortFxn__C                               
0000a4c4  xdc_runtime_System_exitFxn__C                                
0000a4c8  xdc_runtime_System_extendFxn__C                              
0000a4cc  xdc_runtime_System_maxAtexitHandlers__C                      
0000a4d0  xdc_runtime_Text_charTab__C                                  
0000a4d4  xdc_runtime_Text_nameEmpty__C                                
0000a4d8  xdc_runtime_Text_nameStatic__C                               
0000a4dc  xdc_runtime_Text_nameUnknown__C                              
0000a4e0  xdc_runtime_Text_nodeTab__C                                  
0000a4e4  xdc_runtime_Text_visitRopeFxn__C                             
0000a4e8  ti_sysbios_family_arm_m3_TimestampProvider_configTimer__C    
0000a4ea  ti_sysbios_hal_Hwi_Module__id__C                             
0000a4ec  ti_sysbios_heaps_HeapMem_Module__id__C                       
0000a4ee  ti_sysbios_knl_Task_Module__id__C                            
0000a4f0  ti_sysbios_utils_Load_updateInIdle__C                        
0000a4f2  ti_uia_loggers_LoggerStopMode_Module__id__C                  
0000a4f4  ti_uia_loggers_LoggerStopMode_isTimestampEnabled__C          
0000a4f6  xdc_runtime_Core_Module__id__C                               
0000a4f8  xdc_runtime_Error_Module__loggerDefined__C                   
0000a4fa  xdc_runtime_Error_maxDepth__C                                
0000a4fc  xdc_runtime_Memory_Module__id__C                             
0000a4fe  xdc_runtime_SysMin_flushAtExit__C                            
0000a500  xdc_runtime_Text_charCnt__C                                  
0000a502  xdc_runtime_Text_isLoaded__C                                 
0000a504  xdc_runtime_Text_registryModsLastId__C                       
0000a506  xdc_runtime_Text_unnamedModsLastId__C                        
0000a508  __TI_static_base__                                           
0000a7b4  __TI_Handler_Table_Base                                      
0000a7c0  __TI_Handler_Table_Limit                                     
0000a7d0  __TI_CINIT_Base                                              
0000a7e8  __TI_CINIT_Limit                                             
20000000  ti_sysbios_family_arm_m3_Hwi_ramVectors                      
20000180  ti_sysbios_heaps_HeapMem_Instance_State_0_buf__A             
20000980  ti_uia_loggers_LoggerStopMode_Instance_State_1_packetArray__A
20000d80  ti_uia_loggers_LoggerStopMode_Instance_State_2_packetArray__A
20001180  task0Stack                                                   
20001400  ti_sysbios_knl_Task_Instance_State_0_stack__A                
20001600  ti_uia_loggers_LoggerStopMode_Instance_State_0_packetArray__A
20001800  ti_sysbios_family_arm_m3_Hwi_dispatchTable                   
20001940  __CIOBUF_                                                    
20001a60  xdc_runtime_SysMin_Module_State_0_outbuf__A                  
20001ae0  task0Struct                                                  
20001b30  i2cMSP432Objects                                             
20001ba8  Angulo_euler_acc                                             
20001bb0  parmbuf                                                      
20001bb8  timeStep                                                     
20001bc0  Gir_x_g                                                      
20001bc4  Gir_y_g                                                      
20001bc8  acc_x_g                                                      
20001bcc  acc_y_g                                                      
20001bd0  acc_z_g                                                      
20001bd4  Acel_X_LH                                                    
20001bd6  Acel_Y_LH                                                    
20001bd8  Acel_Z_LH                                                    
20001bda  Gir_x                                                        
20001bdc  Gir_y                                                        
20001c00  ti_uia_loggers_LoggerStopMode_Instance_State_0_hdr__A        
20001c80  ti_uia_loggers_LoggerStopMode_Instance_State_1_hdr__A        
20001d00  ti_uia_loggers_LoggerStopMode_Instance_State_2_hdr__A        
20001d30  PowerMSP432_perfLevels                                       
20001dcc  ti_uia_loggers_LoggerStopMode_Object__table__V               
20001e68  ti_sysbios_utils_Load_Module__state__V                       
20001f00  ti_sysbios_knl_Swi_Module_State_0_readyQ__A                  
20001f80  ti_sysbios_knl_Task_Module_State_0_readyQ__A                 
20002000  ti_sysbios_family_arm_msp432_Timer_Object__table__V          
2000204c  ti_sysbios_knl_Task_Object__table__V                         
20002098  ti_sysbios_knl_Task_Module__state__V                         
200020dc  ti_sysbios_gates_GateMutex_Object__table__V                  
20002114  ti_sysbios_family_arm_m3_Hwi_Module__state__V                
20002178  ti_sysbios_family_arm_m3_Hwi_Object__table__V                
200021a8  ti_sysbios_family_arm_m3_Timer_Object__table__V              
200021d8  ti_sysbios_knl_Swi_Object__table__V                          
20002208  ti_sysbios_knl_Clock_Module__state__V                        
20002234  PowerMSP432_module                                           
2000225c  ti_sysbios_BIOS_Module__state__V                             
20002280  ti_sysbios_family_arm_msp432_Timer_Module_State_0_device__A  
200022a0  ti_sysbios_knl_Swi_Module__state__V                          
200022c0  rad_to_deg                                                   
200022c8  sample                                                       
200022d0  timePrev                                                     
200022d8  ti_sysbios_heaps_HeapMem_Object__table__V                    
200022f0  gpioPinConfigs                                               
20002300  ti_sysbios_family_arm_msp432_Timer_Module_State_0_handles__A 
20002310  ti_sysbios_family_arm_m3_Timer_Module__state__V              
2000231c  ti_sysbios_family_arm_msp432_ClockFreqs_Module__state__V     
20002328  ti_sysbios_family_arm_msp432_Timer_Module__state__V          
20002334  ti_sysbios_knl_Task_Module__root__V                          
20002340  ti_uia_runtime_QueueDescriptor_Module__state__V              
2000234c  xdc_runtime_SysMin_Module__state__V                          
20002358  _lock                                                        
2000235c  _unlock                                                      
20002360  gpioCallbackFunctions                                        
20002368  ti_uia_runtime_QueueDescriptor_gPtrToFirstDescriptor         
2000236c  ti_uia_runtime_QueueDescriptor_gUpdateCount                  
20002370  ti_sysbios_family_arm_m3_Hwi_Module__root__V                 
20002378  ti_sysbios_gates_GateHwi_Module__root__V                     
20002380  ti_sysbios_gates_GateMutex_Module__root__V                   
20002388  ti_sysbios_heaps_HeapMem_Module__root__V                     
20002390  ti_sysbios_knl_Queue_Module__root__V                         
20002398  ti_sysbios_knl_Semaphore_Module__root__V                     
200023a0  ti_uia_loggers_LoggerStopMode_Module__root__V                
200023a8  xdc_runtime_Registry_Module__state__V                        
200023b0  xdc_runtime_Startup_Module__state__V                         
200023b8  xdc_runtime_System_Module_State_0_atexitHandlers__A          
200023c0  xdc_runtime_System_Module__state__V                          
200023c8  errno                                                        
200023cc  main_func_sp                                                 
200023d0  ti_sysbios_family_arm_m3_Hwi_Module_State_0_excContext__A    
200023d4  ti_sysbios_family_arm_m3_Hwi_Module_State_0_excStack__A      
200023d8  ti_sysbios_family_arm_m3_TimestampProvider_Module__state__V  
200023dc  ti_sysbios_gates_GateHwi_Object__table__V                    
200023e0  ti_sysbios_knl_Task_Module_State_0_idleTask__A               
200023e4  ti_sysbios_utils_Load_Module_State_0_runningTask__A          
200023e8  ti_sysbios_utils_Load_Module_State_0_taskStartTime__A        
200023ec  xdc_runtime_Memory_Module__state__V                          
200023f0  ti_sysbios_family_arm_m3_Hwi_Module_State_0_excActive__A     
200023f2  xdc_runtime_Error_Module__state__V                           
2000fd00  __stack                                                      
20010000  __STACK_END                                                  
4000480c  WDTCTL_SYM                                                   
e000e000  ti_sysbios_family_arm_m3_Hwi_nvic                            
ffffffff  __TI_pprof_out_hndl                                          
ffffffff  __TI_prof_data_size                                          
ffffffff  __TI_prof_data_start                                         
ffffffff  __binit__                                                    
ffffffff  __c_args__                                                   
ffffffff  binit                                                        
UNDEFED   SHT$$INIT_ARRAY$$Base                                        
UNDEFED   SHT$$INIT_ARRAY$$Limit                                       

[741 symbols]
